{
  "contractName": "Marketplace",
  "abi": [
    {
      "constant": false,
      "inputs": [
        {
          "name": "_newImpl",
          "type": "address"
        }
      ],
      "name": "upgradeImplementation",
      "outputs": [],
      "payable": false,
      "stateMutability": "nonpayable",
      "type": "function"
    },
    {
      "constant": true,
      "inputs": [],
      "name": "getOwner",
      "outputs": [
        {
          "name": "",
          "type": "address"
        }
      ],
      "payable": false,
      "stateMutability": "view",
      "type": "function"
    },
    {
      "constant": true,
      "inputs": [],
      "name": "contractImplementation",
      "outputs": [
        {
          "name": "",
          "type": "address"
        }
      ],
      "payable": false,
      "stateMutability": "view",
      "type": "function"
    },
    {
      "constant": true,
      "inputs": [],
      "name": "getImplementation",
      "outputs": [
        {
          "name": "",
          "type": "address"
        }
      ],
      "payable": false,
      "stateMutability": "view",
      "type": "function"
    },
    {
      "constant": false,
      "inputs": [],
      "name": "init",
      "outputs": [],
      "payable": false,
      "stateMutability": "nonpayable",
      "type": "function"
    },
    {
      "constant": false,
      "inputs": [
        {
          "name": "newOwner",
          "type": "address"
        }
      ],
      "name": "transferOwnership",
      "outputs": [],
      "payable": false,
      "stateMutability": "nonpayable",
      "type": "function"
    },
    {
      "anonymous": false,
      "inputs": [
        {
          "indexed": false,
          "name": "name",
          "type": "string"
        },
        {
          "indexed": false,
          "name": "ID",
          "type": "bytes"
        }
      ],
      "name": "LogNewProduct",
      "type": "event"
    },
    {
      "anonymous": false,
      "inputs": [
        {
          "indexed": false,
          "name": "productName",
          "type": "string"
        },
        {
          "indexed": false,
          "name": "quantity",
          "type": "uint256"
        }
      ],
      "name": "LogPurchase",
      "type": "event"
    },
    {
      "anonymous": false,
      "inputs": [
        {
          "indexed": true,
          "name": "_newImpl",
          "type": "address"
        }
      ],
      "name": "UpgradedContract",
      "type": "event"
    },
    {
      "anonymous": false,
      "inputs": [
        {
          "indexed": true,
          "name": "previousOwner",
          "type": "address"
        },
        {
          "indexed": true,
          "name": "newOwner",
          "type": "address"
        }
      ],
      "name": "OwnershipTransferred",
      "type": "event"
    },
    {
      "constant": false,
      "inputs": [
        {
          "name": "ID",
          "type": "bytes"
        },
        {
          "name": "quantity",
          "type": "uint256"
        }
      ],
      "name": "buy",
      "outputs": [],
      "payable": true,
      "stateMutability": "payable",
      "type": "function"
    },
    {
      "constant": false,
      "inputs": [
        {
          "name": "ID",
          "type": "bytes"
        },
        {
          "name": "newQuantity",
          "type": "uint256"
        }
      ],
      "name": "update",
      "outputs": [],
      "payable": false,
      "stateMutability": "nonpayable",
      "type": "function"
    },
    {
      "constant": false,
      "inputs": [
        {
          "name": "name",
          "type": "string"
        },
        {
          "name": "price",
          "type": "uint256"
        },
        {
          "name": "quantity",
          "type": "uint256"
        }
      ],
      "name": "newProduct",
      "outputs": [
        {
          "name": "",
          "type": "bytes"
        }
      ],
      "payable": false,
      "stateMutability": "nonpayable",
      "type": "function"
    },
    {
      "constant": false,
      "inputs": [
        {
          "name": "ID",
          "type": "bytes"
        }
      ],
      "name": "removeProduct",
      "outputs": [],
      "payable": false,
      "stateMutability": "nonpayable",
      "type": "function"
    },
    {
      "constant": true,
      "inputs": [
        {
          "name": "ID",
          "type": "bytes"
        }
      ],
      "name": "getProduct",
      "outputs": [
        {
          "name": "name",
          "type": "string"
        },
        {
          "name": "price",
          "type": "uint256"
        },
        {
          "name": "quantity",
          "type": "uint256"
        }
      ],
      "payable": false,
      "stateMutability": "view",
      "type": "function"
    },
    {
      "constant": true,
      "inputs": [],
      "name": "getProducts",
      "outputs": [
        {
          "name": "",
          "type": "bytes[]"
        }
      ],
      "payable": false,
      "stateMutability": "view",
      "type": "function"
    },
    {
      "constant": true,
      "inputs": [
        {
          "name": "ID",
          "type": "bytes"
        },
        {
          "name": "quantity",
          "type": "uint256"
        }
      ],
      "name": "getPrice",
      "outputs": [
        {
          "name": "",
          "type": "uint256"
        }
      ],
      "payable": false,
      "stateMutability": "view",
      "type": "function"
    },
    {
      "constant": false,
      "inputs": [],
      "name": "withdraw",
      "outputs": [],
      "payable": false,
      "stateMutability": "nonpayable",
      "type": "function"
    },
    {
      "constant": true,
      "inputs": [],
      "name": "getBalance",
      "outputs": [
        {
          "name": "",
          "type": "uint256"
        }
      ],
      "payable": false,
      "stateMutability": "view",
      "type": "function"
    }
  ],
  "bytecode": "0x608060405234801561001057600080fd5b506125c2806100206000396000f3fe608060405260043610610105576000357c0100000000000000000000000000000000000000000000000000000000900480639e72370b116100a7578063e1c7392a11610076578063e1c7392a146102cc578063e25af66a146102e3578063e6f2642514610322578063f2fde38b1461035f57610105565b80639e72370b14610222578063aaf10f421461024d578063c29b2f2014610278578063c3b45234146102a357610105565b8063556affb2116100e3578063556affb21461016857806383f94db714610191578063893d20e8146101ba57806392c44137146101e557610105565b806312065fe01461010a5780631d758668146101355780633ccfd60b14610151575b600080fd5b34801561011657600080fd5b5061011f610388565b60405161012c91906123d3565b60405180910390f35b61014f600480360361014a9190810190612009565b6103a7565b005b34801561015d57600080fd5b5061016661064e565b005b34801561017457600080fd5b5061018f600480360361018a9190810190611fc8565b61072c565b005b34801561019d57600080fd5b506101b860048036036101b39190810190611f76565b610a1e565b005b3480156101c657600080fd5b506101cf610b00565b6040516101dc91906122af565b60405180910390f35b3480156101f157600080fd5b5061020c60048036036102079190810190612009565b610b2a565b60405161021991906123d3565b60405180910390f35b34801561022e57600080fd5b50610237610c32565b60405161024491906122af565b60405180910390f35b34801561025957600080fd5b50610262610c57565b60405161026f91906122af565b60405180910390f35b34801561028457600080fd5b5061028d610c80565b60405161029a91906122ca565b60405180910390f35b3480156102af57600080fd5b506102ca60048036036102c59190810190612009565b610d69565b005b3480156102d857600080fd5b506102e1610ec4565b005b3480156102ef57600080fd5b5061030a60048036036103059190810190611fc8565b610f9a565b60405161031993929190612345565b60405180910390f35b34801561032e57600080fd5b506103496004803603610344919081019061205d565b611194565b60405161035691906122ec565b60405180910390f35b34801561036b57600080fd5b5061038660048036036103819190810190611f9f565b6114bd565b005b60003073ffffffffffffffffffffffffffffffffffffffff1631905090565b61042634826002856040518082805190602001908083835b6020831015156103e457805182526020820191506020810190506020830392506103bf565b6001836020036101000a03801982511681845116808217855250505050505090500191505090815260200160405180910390206116159092919063ffffffff16565b151561043157600080fd5b6104a46002836040518082805190602001908083835b60208310151561046c5780518252602082019150602081019050602083039250610447565b6001836020036101000a038019825116818451168082178552505050505050905001915050908152602001604051809103902061164a565b15156104af57600080fd5b61052c816002846040518082805190602001908083835b6020831015156104eb57805182526020820191506020810190506020830392506104c6565b6001836020036101000a03801982511681845116808217855250505050505090500191505090815260200160405180910390206116fb90919063ffffffff16565b7ffdf9fde64a309b920567412fe6a933942ccfff6922806daebff52e68fe269c906002836040518082805190602001908083835b6020831015156105855780518252602082019150602081019050602083039250610560565b6001836020036101000a0380198251168184511680821785525050505050509050019150509081526020016040518091039020600001826040516105ca929190612383565b60405180910390a161064a826002846040518082805190602001908083835b60208310151561060e57805182526020820191506020810190506020830392506105e9565b6001836020036101000a03801982511681845116808217855250505050505090500191505090815260200160405180910390206002015461171e565b5050565b600160009054906101000a900473ffffffffffffffffffffffffffffffffffffffff1673ffffffffffffffffffffffffffffffffffffffff163373ffffffffffffffffffffffffffffffffffffffff161415156106aa57600080fd5b600160009054906101000a900473ffffffffffffffffffffffffffffffffffffffff1673ffffffffffffffffffffffffffffffffffffffff166108fc3073ffffffffffffffffffffffffffffffffffffffff16319081150290604051600060405180830381858888f19350505050158015610729573d6000803e3d6000fd5b50565b600160009054906101000a900473ffffffffffffffffffffffffffffffffffffffff1673ffffffffffffffffffffffffffffffffffffffff163373ffffffffffffffffffffffffffffffffffffffff1614151561078857600080fd5b6107fb6002826040518082805190602001908083835b6020831015156107c3578051825260208201915060208101905060208303925061079e565b6001836020036101000a038019825116818451168082178552505050505050905001915050908152602001604051809103902061164a565b151561080657600080fd5b6108796002826040518082805190602001908083835b602083101515610841578051825260208201915060208101905060208303925061081c565b6001836020036101000a0380198251168184511680821785525050505050509050019150509081526020016040518091039020611a34565b60006002826040518082805190602001908083835b6020831015156108b3578051825260208201915060208101905060208303925061088e565b6001836020036101000a03801982511681845116808217855250505050505090500191505090815260200160405180910390206003015490506003818154811015156108fb57fe5b9060005260206000200160006109119190611b90565b600360016003805490500381548110151561092857fe5b9060005260206000200160038281548110151561094157fe5b90600052602060002001908054600181600116156101000203166002900461096a929190611bd8565b50806002600360016003805490500381548110151561098557fe5b9060005260206000200160405180828054600181600116156101000203166002900480156109ea5780601f106109c85761010080835404028352918201916109ea565b820191906000526020600020905b8154815290600101906020018083116109d6575b50509150509081526020016040518091039020600301819055506003805480919060019003610a199190611c5f565b505050565b600160009054906101000a900473ffffffffffffffffffffffffffffffffffffffff1673ffffffffffffffffffffffffffffffffffffffff163373ffffffffffffffffffffffffffffffffffffffff16141515610a7a57600080fd5b806000806101000a81548173ffffffffffffffffffffffffffffffffffffffff021916908373ffffffffffffffffffffffffffffffffffffffff1602179055508073ffffffffffffffffffffffffffffffffffffffff167fbb0e7ec411133f2e650f59a5c752be1a0f548c2140421e80171b2f9b1ff833a960405160405180910390a250565b6000600160009054906101000a900473ffffffffffffffffffffffffffffffffffffffff16905090565b6000816002846040518082805190602001908083835b602083101515610b655780518252602082019150602081019050602083039250610b40565b6001836020036101000a03801982511681845116808217855250505050505090500191505090815260200160405180910390206002015410151515610ba957600080fd5b610c2a826002856040518082805190602001908083835b602083101515610be55780518252602082019150602081019050602083039250610bc0565b6001836020036101000a038019825116818451168082178552505050505050905001915050908152602001604051809103902060010154611a7490919063ffffffff16565b905092915050565b6000809054906101000a900473ffffffffffffffffffffffffffffffffffffffff1681565b60008060009054906101000a900473ffffffffffffffffffffffffffffffffffffffff16905090565b60606003805480602002602001604051908101604052809291908181526020016000905b82821015610d60578382906000526020600020018054600181600116156101000203166002900480601f016020809104026020016040519081016040528092919081815260200182805460018160011615610100020316600290048015610d4c5780601f10610d2157610100808354040283529160200191610d4c565b820191906000526020600020905b815481529060010190602001808311610d2f57829003601f168201915b505050505081526020019060010190610ca4565b50505050905090565b600160009054906101000a900473ffffffffffffffffffffffffffffffffffffffff1673ffffffffffffffffffffffffffffffffffffffff163373ffffffffffffffffffffffffffffffffffffffff16141515610dc557600080fd5b610e386002836040518082805190602001908083835b602083101515610e005780518252602082019150602081019050602083039250610ddb565b6001836020036101000a038019825116818451168082178552505050505050905001915050908152602001604051809103902061164a565b1515610e4357600080fd5b806002836040518082805190602001908083835b602083101515610e7c5780518252602082019150602081019050602083039250610e57565b6001836020036101000a038019825116818451168082178552505050505050905001915050908152602001604051809103902060020181905550610ec0828261171e565b5050565b600073ffffffffffffffffffffffffffffffffffffffff16600160009054906101000a900473ffffffffffffffffffffffffffffffffffffffff1673ffffffffffffffffffffffffffffffffffffffff16141515610f57576040517f08c379a0000000000000000000000000000000000000000000000000000000008152600401610f4e906123b3565b60405180910390fd5b33600160006101000a81548173ffffffffffffffffffffffffffffffffffffffff021916908373ffffffffffffffffffffffffffffffffffffffff160217905550565b60606000806002846040518082805190602001908083835b602083101515610fd75780518252602082019150602081019050602083039250610fb2565b6001836020036101000a03801982511681845116808217855250505050505090500191505090815260200160405180910390206000016002856040518082805190602001908083835b6020831015156110455780518252602082019150602081019050602083039250611020565b6001836020036101000a0380198251168184511680821785525050505050509050019150509081526020016040518091039020600101546002866040518082805190602001908083835b6020831015156110b4578051825260208201915060208101905060208303925061108f565b6001836020036101000a038019825116818451168082178552505050505050905001915050908152602001604051809103902060020154828054600181600116156101000203166002900480601f0160208091040260200160405190810160405280929190818152602001828054600181600116156101000203166002900480156111805780601f1061115557610100808354040283529160200191611180565b820191906000526020600020905b81548152906001019060200180831161116357829003601f168201915b505050505092509250925092509193909250565b6060600160009054906101000a900473ffffffffffffffffffffffffffffffffffffffff1673ffffffffffffffffffffffffffffffffffffffff163373ffffffffffffffffffffffffffffffffffffffff161415156111f257600080fd5b6060846040516020018082805190602001908083835b60208310151561122d5780518252602082019150602081019050602083039250611208565b6001836020036101000a03801982511681845116808217855250505050505090500191505060405160208183030381529060405290506112d66002826040518082805190602001908083835b60208310151561129e5780518252602082019150602081019050602083039250611279565b6001836020036101000a038019825116818451168082178552505050505050905001915050908152602001604051809103902061164a565b1515156112e257600080fd5b600381908060018154018082558091505090600182039060005260206000200160009091929091909150908051906020019061131f929190611c8b565b50506113378585856001600380549050036000611aaf565b6002826040518082805190602001908083835b60208310151561136f578051825260208201915060208101905060208303925061134a565b6001836020036101000a038019825116818451168082178552505050505050905001915050908152602001604051809103902060008201518160000190805190602001906113be929190611d0b565b5060208201518160010155604082015181600201556060820151816003015560808201518160040160006101000a81548160ff0219169083151502179055509050507fde5bda77b97fef662568e5b912b029173374400f9da28ae7c8624847268e948d858260405161143192919061230e565b60405180910390a1826002826040518082805190602001908083835b602083101515611472578051825260208201915060208101905060208303925061144d565b6001836020036101000a0380198251168184511680821785525050505050509050019150509081526020016040518091039020600201541415156114b257fe5b809150509392505050565b600160009054906101000a900473ffffffffffffffffffffffffffffffffffffffff1673ffffffffffffffffffffffffffffffffffffffff163373ffffffffffffffffffffffffffffffffffffffff1614151561151957600080fd5b600073ffffffffffffffffffffffffffffffffffffffff168173ffffffffffffffffffffffffffffffffffffffff161415151561155557600080fd5b8073ffffffffffffffffffffffffffffffffffffffff16600160009054906101000a900473ffffffffffffffffffffffffffffffffffffffff1673ffffffffffffffffffffffffffffffffffffffff167f8be0079c531659141344cd1fd0a4f28419497f9722a3daafe3b4186f6b6457e060405160405180910390a380600160006101000a81548173ffffffffffffffffffffffffffffffffffffffff021916908373ffffffffffffffffffffffffffffffffffffffff16021790555050565b600061162a8284611af890919063ffffffff16565b846001015411158015611641575081846002015410155b90509392505050565b60006060826000018054600181600116156101000203166002900480601f0160208091040260200160405190810160405280929190818152602001828054600181600116156101000203166002900480156116e65780601f106116bb576101008083540402835291602001916116e6565b820191906000526020600020905b8154815290600101906020018083116116c957829003601f168201915b50505050509050600081511415915050919050565b611712818360020154611b1390919063ffffffff16565b82600201819055505050565b600581111580156117a857506002826040518082805190602001908083835b602083101515611762578051825260208201915060208101905060208303925061173d565b6001836020036101000a038019825116818451168082178552505050505050905001915050908152602001604051809103902060040160009054906101000a900460ff16155b156118a85760016002836040518082805190602001908083835b6020831015156117e757805182526020820191506020810190506020830392506117c2565b6001836020036101000a038019825116818451168082178552505050505050905001915050908152602001604051809103902060040160006101000a81548160ff0219169083151502179055506118a76002836040518082805190602001908083835b60208310151561186f578051825260208201915060208101905060208303925061184a565b6001836020036101000a0380198251168184511680821785525050505050509050019150509081526020016040518091039020611b2c565b5b60058111801561193057506002826040518082805190602001908083835b6020831015156118eb57805182526020820191506020810190506020830392506118c6565b6001836020036101000a038019825116818451168082178552505050505050905001915050908152602001604051809103902060040160009054906101000a900460ff165b15611a305760006002836040518082805190602001908083835b60208310151561196f578051825260208201915060208101905060208303925061194a565b6001836020036101000a038019825116818451168082178552505050505050905001915050908152602001604051809103902060040160006101000a81548160ff021916908315150217905550611a2f6002836040518082805190602001908083835b6020831015156119f757805182526020820191506020810190506020830392506119d2565b6001836020036101000a0380198251168184511680821785525050505050509050019150509081526020016040518091039020611b4f565b5b5050565b6020604051908101604052806000815250816000019080519060200190611a5c929190611d8b565b50600081600101819055506000816002018190555050565b600080831415611a875760009050611aa9565b60008284029050828482811515611a9a57fe5b04141515611aa457fe5b809150505b92915050565b611ab7611e0b565b611abf611e0b565b60a06040519081016040528088815260200187815260200186815260200185815260200184151581525090508091505095945050505050565b6000808284811515611b0657fe5b0490508091505092915050565b6000828211151515611b2157fe5b818303905092915050565b611b44600a8260010154611b7290919063ffffffff16565b816001018190555050565b611b67600a8260010154611b1390919063ffffffff16565b816001018190555050565b6000808284019050838110151515611b8657fe5b8091505092915050565b50805460018160011615610100020316600290046000825580601f10611bb65750611bd5565b601f016020900490600052602060002090810190611bd49190611e3d565b5b50565b828054600181600116156101000203166002900490600052602060002090601f016020900481019282601f10611c115780548555611c4e565b82800160010185558215611c4e57600052602060002091601f016020900482015b82811115611c4d578254825591600101919060010190611c32565b5b509050611c5b9190611e3d565b5090565b815481835581811115611c8657818360005260206000209182019101611c859190611e62565b5b505050565b828054600181600116156101000203166002900490600052602060002090601f016020900481019282601f10611ccc57805160ff1916838001178555611cfa565b82800160010185558215611cfa579182015b82811115611cf9578251825591602001919060010190611cde565b5b509050611d079190611e3d565b5090565b828054600181600116156101000203166002900490600052602060002090601f016020900481019282601f10611d4c57805160ff1916838001178555611d7a565b82800160010185558215611d7a579182015b82811115611d79578251825591602001919060010190611d5e565b5b509050611d879190611e3d565b5090565b828054600181600116156101000203166002900490600052602060002090601f016020900481019282601f10611dcc57805160ff1916838001178555611dfa565b82800160010185558215611dfa579182015b82811115611df9578251825591602001919060010190611dde565b5b509050611e079190611e3d565b5090565b60a060405190810160405280606081526020016000815260200160008152602001600081526020016000151581525090565b611e5f91905b80821115611e5b576000816000905550600101611e43565b5090565b90565b611e8b91905b80821115611e875760008181611e7e9190611b90565b50600101611e68565b5090565b90565b6000611e9a8235612507565b905092915050565b6000611eae8235612519565b905092915050565b600082601f8301121515611ec957600080fd5b8135611edc611ed78261241b565b6123ee565b91508082526020830160208301858383011115611ef857600080fd5b611f03838284612535565b50505092915050565b600082601f8301121515611f1f57600080fd5b8135611f32611f2d82612447565b6123ee565b91508082526020830160208301858383011115611f4e57600080fd5b611f59838284612535565b50505092915050565b6000611f6e823561252b565b905092915050565b600060208284031215611f8857600080fd5b6000611f9684828501611e8e565b91505092915050565b600060208284031215611fb157600080fd5b6000611fbf84828501611ea2565b91505092915050565b600060208284031215611fda57600080fd5b600082013567ffffffffffffffff811115611ff457600080fd5b61200084828501611eb6565b91505092915050565b6000806040838503121561201c57600080fd5b600083013567ffffffffffffffff81111561203657600080fd5b61204285828601611eb6565b925050602061205385828601611f62565b9150509250929050565b60008060006060848603121561207257600080fd5b600084013567ffffffffffffffff81111561208c57600080fd5b61209886828701611f0c565b93505060206120a986828701611f62565b92505060406120ba86828701611f62565b9150509250925092565b6120cd816124cb565b82525050565b60006120de82612492565b808452602084019350836020820285016120f785612473565b60005b84811015612130578383038852612112838351612177565b925061211d826124be565b91506020880197506001810190506120fa565b508196508694505050505092915050565b600061214c826124a8565b808452612160816020860160208601612544565b61216981612577565b602085010191505092915050565b60006121828261249d565b808452612196816020860160208601612544565b61219f81612577565b602085010191505092915050565b60006121b8826124b3565b8084526121cc816020860160208601612544565b6121d581612577565b602085010191505092915050565b600081546001811660008114612200576001811461222057612261565b607f600283041680865260ff198316602087015260408601935050612261565b6002820480865260208601955061223685612480565b60005b8281101561225857815481890152600182019150602081019050612239565b80880195505050505b505092915050565b6000601a82527f436f6e747261637420616c726561647920686173206f776e65720000000000006020830152604082019050919050565b6122a9816124fd565b82525050565b60006020820190506122c460008301846120c4565b92915050565b600060208201905081810360008301526122e481846120d3565b905092915050565b600060208201905081810360008301526123068184612141565b905092915050565b6000604082019050818103600083015261232881856121ad565b9050818103602083015261233c8184612141565b90509392505050565b6000606082019050818103600083015261235f81866121ad565b905061236e60208301856122a0565b61237b60408301846122a0565b949350505050565b6000604082019050818103600083015261239d81856121e3565b90506123ac60208301846122a0565b9392505050565b600060208201905081810360008301526123cc81612269565b9050919050565b60006020820190506123e860008301846122a0565b92915050565b6000604051905081810181811067ffffffffffffffff8211171561241157600080fd5b8060405250919050565b600067ffffffffffffffff82111561243257600080fd5b601f19601f8301169050602081019050919050565b600067ffffffffffffffff82111561245e57600080fd5b601f19601f8301169050602081019050919050565b6000602082019050919050565b60008160005260206000209050919050565b600081519050919050565b600081519050919050565b600081519050919050565b600081519050919050565b6000602082019050919050565b60006124d6826124dd565b9050919050565b600073ffffffffffffffffffffffffffffffffffffffff82169050919050565b6000819050919050565b6000612512826124dd565b9050919050565b6000612524826124dd565b9050919050565b6000819050919050565b82818337600083830152505050565b60005b83811015612562578082015181840152602081019050612547565b83811115612571576000848401525b50505050565b6000601f19601f830116905091905056fea265627a7a7230582054d4fcddadcab07a8767acbc72232a3cd9edcd82659f2dd62add8db9b8e48d256c6578706572696d656e74616cf50037",
  "source": "pragma solidity ^0.5.0;\npragma experimental ABIEncoderV2;\nimport '../Upgradeability/OwnableUpgradeableImplementation.sol';\nimport './SafeMath.sol';\nimport './ProductLib.sol';\nimport './Icontracts/IMarketplace.sol';\n\ncontract Marketplace is IMarketplace, OwnableUpgradeableImplementation {\n    using SafeMath for uint;\n    using ProductLib for ProductLib.Product;\n    \n    event LogNewProduct(string name, bytes ID);\n    event LogPurchase(string productName, uint quantity);\n    \n\n    mapping (bytes => ProductLib.Product) stock;\n    bytes[] allProductsID;\n\n    function buy(bytes memory ID, uint quantity) public payable {\n        require(stock[ID].canBeBought(msg.value, quantity));\n        require(stock[ID].productExist());\n        stock[ID].buyProduct(quantity);\n\n        emit LogPurchase(stock[ID].name, quantity);\n        \n        //increase the price if stock scarcity\n        updatePrice(ID, stock[ID].quantity);\n    }\n    \n    function update(bytes memory ID, uint newQuantity) public onlyOwner {\n        require(stock[ID].productExist());\n        \n        stock[ID].quantity = newQuantity;\n        \n        //increase or restore the price\n        updatePrice(ID, newQuantity);\n    }\n    \n    function updatePrice(bytes memory ID, uint newQuantity) internal {\n        if(newQuantity <= 5 && !stock[ID].wasIncreased){\n            stock[ID].wasIncreased = true;\n            stock[ID].increasePriceOnLowQuantity();\n        }\n        if(newQuantity > 5 && stock[ID].wasIncreased){\n            stock[ID].wasIncreased = false;\n            stock[ID].restorePrice();\n        }\n    }\n    \n    //creates a new product and returns its ID\n    function newProduct(string memory name, uint price, uint quantity) public onlyOwner returns(bytes memory) {\n        bytes memory ID = abi.encodePacked(name);// the ID is the hash of product name\n        require(!stock[ID].productExist());\n        allProductsID.push(ID);//add the ID to the array\n\n        stock[ID] = ProductLib.regNewProduct(name, price, quantity, allProductsID.length-1, false);\n        \n        emit LogNewProduct(name, ID);\n        assert(stock[ID].quantity == quantity);\n        return ID;\n    }\n    \n    function removeProduct(bytes memory ID) public onlyOwner {\n        require(stock[ID].productExist());\n        stock[ID].removeProduct();\n        \n        //remove the productID from the array\n        uint index = stock[ID].IDindex;//take the index of the ID\n        delete allProductsID[index];//delete the ID with certain index\n        //to fill the gap, take the last value of the array\n        //and store it at the index of the deleted ID\n        allProductsID[index] = allProductsID[allProductsID.length-1];\n        stock[allProductsID[allProductsID.length-1]].IDindex = index;\n        allProductsID.length--; //remove the last value and index\n    }\n    \n    function getProduct(bytes memory ID) public view returns(string memory name, uint price, uint quantity) {\n        return (stock[ID].name, stock[ID].price, stock[ID].quantity);\n    }\n    \n    function getProducts() public view returns(bytes[] memory) {\n        return allProductsID;\n    }\n    \n    function getPrice(bytes memory ID, uint quantity) public view returns (uint) {\n        require(stock[ID].quantity >= quantity);\n        return stock[ID].price.mul(quantity);\n    }\n    \n    function withdraw() public onlyOwner {\n        owner.transfer(address(this).balance);\n    }\n    \n    function getBalance() public view returns (uint){\n        return address(this).balance;\n    }\n}",
  "sourcePath": "/Users/desimiramitkova/solidity/homework/MarketPlace/contracts/Marketplace/Marketplace.sol",
  "compiler": {
    "name": "solc",
    "version": "0.5.2+commit.1df8f40c.Emscripten.clang"
  },
  "schemaVersion": "0.10.0",
  "updatedAt": "2018-12-31T15:24:32.592Z"
}