{
  "contractName": "Marketplace",
  "abi": [
    {
      "constant": false,
      "inputs": [
        {
          "name": "_newImpl",
          "type": "address"
        }
      ],
      "name": "upgradeImplementation",
      "outputs": [],
      "payable": false,
      "stateMutability": "nonpayable",
      "type": "function"
    },
    {
      "constant": true,
      "inputs": [],
      "name": "getOwner",
      "outputs": [
        {
          "name": "",
          "type": "address"
        }
      ],
      "payable": false,
      "stateMutability": "view",
      "type": "function"
    },
    {
      "constant": true,
      "inputs": [],
      "name": "contractImplementation",
      "outputs": [
        {
          "name": "",
          "type": "address"
        }
      ],
      "payable": false,
      "stateMutability": "view",
      "type": "function"
    },
    {
      "constant": true,
      "inputs": [],
      "name": "getImplementation",
      "outputs": [
        {
          "name": "",
          "type": "address"
        }
      ],
      "payable": false,
      "stateMutability": "view",
      "type": "function"
    },
    {
      "constant": false,
      "inputs": [],
      "name": "init",
      "outputs": [],
      "payable": false,
      "stateMutability": "nonpayable",
      "type": "function"
    },
    {
      "constant": false,
      "inputs": [
        {
          "name": "newOwner",
          "type": "address"
        }
      ],
      "name": "transferOwnership",
      "outputs": [],
      "payable": false,
      "stateMutability": "nonpayable",
      "type": "function"
    },
    {
      "anonymous": false,
      "inputs": [
        {
          "indexed": false,
          "name": "name",
          "type": "string"
        },
        {
          "indexed": false,
          "name": "ID",
          "type": "bytes32"
        }
      ],
      "name": "LogNewProduct",
      "type": "event"
    },
    {
      "anonymous": false,
      "inputs": [
        {
          "indexed": false,
          "name": "productName",
          "type": "string"
        },
        {
          "indexed": false,
          "name": "quantity",
          "type": "uint256"
        }
      ],
      "name": "LogPurchase",
      "type": "event"
    },
    {
      "anonymous": false,
      "inputs": [
        {
          "indexed": true,
          "name": "_newImpl",
          "type": "address"
        }
      ],
      "name": "UpgradedContract",
      "type": "event"
    },
    {
      "anonymous": false,
      "inputs": [
        {
          "indexed": true,
          "name": "previousOwner",
          "type": "address"
        },
        {
          "indexed": true,
          "name": "newOwner",
          "type": "address"
        }
      ],
      "name": "OwnershipTransferred",
      "type": "event"
    },
    {
      "constant": false,
      "inputs": [
        {
          "name": "ID",
          "type": "bytes32"
        },
        {
          "name": "quantity",
          "type": "uint256"
        }
      ],
      "name": "buy",
      "outputs": [],
      "payable": true,
      "stateMutability": "payable",
      "type": "function"
    },
    {
      "constant": false,
      "inputs": [
        {
          "name": "ID",
          "type": "bytes32"
        },
        {
          "name": "newQuantity",
          "type": "uint256"
        }
      ],
      "name": "update",
      "outputs": [],
      "payable": false,
      "stateMutability": "nonpayable",
      "type": "function"
    },
    {
      "constant": false,
      "inputs": [
        {
          "name": "name",
          "type": "string"
        },
        {
          "name": "price",
          "type": "uint256"
        },
        {
          "name": "quantity",
          "type": "uint256"
        }
      ],
      "name": "newProduct",
      "outputs": [
        {
          "name": "",
          "type": "bytes32"
        }
      ],
      "payable": false,
      "stateMutability": "nonpayable",
      "type": "function"
    },
    {
      "constant": false,
      "inputs": [
        {
          "name": "ID",
          "type": "bytes32"
        }
      ],
      "name": "removeProduct",
      "outputs": [],
      "payable": false,
      "stateMutability": "nonpayable",
      "type": "function"
    },
    {
      "constant": true,
      "inputs": [
        {
          "name": "ID",
          "type": "bytes32"
        }
      ],
      "name": "getProduct",
      "outputs": [
        {
          "name": "name",
          "type": "string"
        },
        {
          "name": "price",
          "type": "uint256"
        },
        {
          "name": "quantity",
          "type": "uint256"
        }
      ],
      "payable": false,
      "stateMutability": "view",
      "type": "function"
    },
    {
      "constant": true,
      "inputs": [],
      "name": "getProducts",
      "outputs": [
        {
          "name": "",
          "type": "bytes32[]"
        }
      ],
      "payable": false,
      "stateMutability": "view",
      "type": "function"
    },
    {
      "constant": true,
      "inputs": [
        {
          "name": "ID",
          "type": "bytes32"
        },
        {
          "name": "quantity",
          "type": "uint256"
        }
      ],
      "name": "getPrice",
      "outputs": [
        {
          "name": "",
          "type": "uint256"
        }
      ],
      "payable": false,
      "stateMutability": "view",
      "type": "function"
    },
    {
      "constant": true,
      "inputs": [],
      "name": "getBalance",
      "outputs": [
        {
          "name": "",
          "type": "uint256"
        }
      ],
      "payable": false,
      "stateMutability": "view",
      "type": "function"
    }
  ],
  "bytecode": "0x608060405234801561001057600080fd5b506118a2806100206000396000f3fe6080604052600436106100fa576000357c010000000000000000000000000000000000000000000000000000000090048063a58bb84a1161009c578063c9280f0611610076578063c9280f06146102ac578063e1c7392a146102e9578063e6f2642514610300578063f2fde38b1461033d576100fa565b8063a58bb84a1461022d578063aaf10f4214610256578063c29b2f2014610281576100fa565b806383f94db7116100d857806383f94db714610185578063893d20e8146101ae5780639e72370b146101d9578063a26ea49614610204576100fa565b80630ddeb632146100ff57806312065fe01461011b5780633a20e9df14610146575b600080fd5b610119600480360361011491908101906113bf565b610366565b005b34801561012757600080fd5b50610130610455565b60405161013d91906116f3565b60405180910390f35b34801561015257600080fd5b5061016d60048036036101689190810190611396565b610474565b60405161017c93929190611665565b60405180910390f35b34801561019157600080fd5b506101ac60048036036101a7919081019061136d565b610566565b005b3480156101ba57600080fd5b506101c3610648565b6040516101d091906115dd565b60405180910390f35b3480156101e557600080fd5b506101ee610672565b6040516101fb91906115dd565b60405180910390f35b34801561021057600080fd5b5061022b60048036036102269190810190611396565b610697565b005b34801561023957600080fd5b50610254600480360361024f91908101906113bf565b610801565b005b34801561026257600080fd5b5061026b6108ac565b60405161027891906115dd565b60405180910390f35b34801561028d57600080fd5b506102966108d5565b6040516102a391906115f8565b60405180910390f35b3480156102b857600080fd5b506102d360048036036102ce91908101906113bf565b61092d565b6040516102e091906116f3565b60405180910390f35b3480156102f557600080fd5b506102fe610985565b005b34801561030c57600080fd5b50610327600480360361032291908101906113fb565b610a5b565b604051610334919061161a565b60405180910390f35b34801561034957600080fd5b50610364600480360361035f919081019061136d565b610c70565b005b61038d348260026000868152602001908152602001600020610dc89092919063ffffffff16565b151561039857600080fd5b6103b360026000848152602001908152602001600020610dfd565b15156103be57600080fd5b6103e38160026000858152602001908152602001600020610eae90919063ffffffff16565b7ffdf9fde64a309b920567412fe6a933942ccfff6922806daebff52e68fe269c9060026000848152602001908152602001600020600001826040516104299291906116a3565b60405180910390a1610451826002600085815260200190815260200160002060020154610ed1565b5050565b60003073ffffffffffffffffffffffffffffffffffffffff1631905090565b60606000806002600085815260200190815260200160002060000160026000868152602001908152602001600020600101546002600087815260200190815260200160002060020154828054600181600116156101000203166002900480601f0160208091040260200160405190810160405280929190818152602001828054600181600116156101000203166002900480156105525780601f1061052757610100808354040283529160200191610552565b820191906000526020600020905b81548152906001019060200180831161053557829003601f168201915b505050505092509250925092509193909250565b600160009054906101000a900473ffffffffffffffffffffffffffffffffffffffff1673ffffffffffffffffffffffffffffffffffffffff163373ffffffffffffffffffffffffffffffffffffffff161415156105c257600080fd5b806000806101000a81548173ffffffffffffffffffffffffffffffffffffffff021916908373ffffffffffffffffffffffffffffffffffffffff1602179055508073ffffffffffffffffffffffffffffffffffffffff167fbb0e7ec411133f2e650f59a5c752be1a0f548c2140421e80171b2f9b1ff833a960405160405180910390a250565b6000600160009054906101000a900473ffffffffffffffffffffffffffffffffffffffff16905090565b6000809054906101000a900473ffffffffffffffffffffffffffffffffffffffff1681565b600160009054906101000a900473ffffffffffffffffffffffffffffffffffffffff1673ffffffffffffffffffffffffffffffffffffffff163373ffffffffffffffffffffffffffffffffffffffff161415156106f357600080fd5b61070e60026000838152602001908152602001600020610dfd565b151561071957600080fd5b61073460026000838152602001908152602001600020610fd7565b60006002600083815260200190815260200160002060030154905060038181548110151561075e57fe5b9060005260206000200160009055600360016003805490500381548110151561078357fe5b906000526020600020015460038281548110151561079d57fe5b9060005260206000200181905550806002600060036001600380549050038154811015156107c757fe5b906000526020600020015481526020019081526020016000206003018190555060038054809190600190036107fc9190611133565b505050565b600160009054906101000a900473ffffffffffffffffffffffffffffffffffffffff1673ffffffffffffffffffffffffffffffffffffffff163373ffffffffffffffffffffffffffffffffffffffff1614151561085d57600080fd5b61087860026000848152602001908152602001600020610dfd565b151561088357600080fd5b8060026000848152602001908152602001600020600201819055506108a88282610ed1565b5050565b60008060009054906101000a900473ffffffffffffffffffffffffffffffffffffffff16905090565b6060600380548060200260200160405190810160405280929190818152602001828054801561092357602002820191906000526020600020905b81548152602001906001019080831161090f575b5050505050905090565b60008160026000858152602001908152602001600020600201541015151561095457600080fd5b61097d82600260008681526020019081526020016000206001015461101790919063ffffffff16565b905092915050565b600073ffffffffffffffffffffffffffffffffffffffff16600160009054906101000a900473ffffffffffffffffffffffffffffffffffffffff1673ffffffffffffffffffffffffffffffffffffffff16141515610a18576040517f08c379a0000000000000000000000000000000000000000000000000000000008152600401610a0f906116d3565b60405180910390fd5b33600160006101000a81548173ffffffffffffffffffffffffffffffffffffffff021916908373ffffffffffffffffffffffffffffffffffffffff160217905550565b6000600160009054906101000a900473ffffffffffffffffffffffffffffffffffffffff1673ffffffffffffffffffffffffffffffffffffffff163373ffffffffffffffffffffffffffffffffffffffff16141515610ab957600080fd5b6000846040516020018082805190602001908083835b602083101515610af45780518252602082019150602081019050602083039250610acf565b6001836020036101000a038019825116818451168082178552505050505050905001915050604051602081830303815290604052805190602001209050610b4c60026000838152602001908152602001600020610dfd565b151515610b5857600080fd5b6003819080600181540180825580915050906001820390600052602060002001600090919290919091505550610b9a8585856001600380549050036000611052565b600260008381526020019081526020016000206000820151816000019080519060200190610bc992919061115f565b5060208201518160010155604082015181600201556060820151816003015560808201518160040160006101000a81548160ff0219169083151502179055509050507fb3537ec7ff479a1e147dda5183197ab20ad12fb10af0b0cf0e7a6bccbc47eda98582604051610c3c929190611635565b60405180910390a1826002600083815260200190815260200160002060020154141515610c6557fe5b809150509392505050565b600160009054906101000a900473ffffffffffffffffffffffffffffffffffffffff1673ffffffffffffffffffffffffffffffffffffffff163373ffffffffffffffffffffffffffffffffffffffff16141515610ccc57600080fd5b600073ffffffffffffffffffffffffffffffffffffffff168173ffffffffffffffffffffffffffffffffffffffff1614151515610d0857600080fd5b8073ffffffffffffffffffffffffffffffffffffffff16600160009054906101000a900473ffffffffffffffffffffffffffffffffffffffff1673ffffffffffffffffffffffffffffffffffffffff167f8be0079c531659141344cd1fd0a4f28419497f9722a3daafe3b4186f6b6457e060405160405180910390a380600160006101000a81548173ffffffffffffffffffffffffffffffffffffffff021916908373ffffffffffffffffffffffffffffffffffffffff16021790555050565b6000610ddd828461109b90919063ffffffff16565b846001015411158015610df4575081846002015410155b90509392505050565b60006060826000018054600181600116156101000203166002900480601f016020809104026020016040519081016040528092919081815260200182805460018160011615610100020316600290048015610e995780601f10610e6e57610100808354040283529160200191610e99565b820191906000526020600020905b815481529060010190602001808311610e7c57829003601f168201915b50505050509050600081511415915050919050565b610ec58183600201546110b690919063ffffffff16565b82600201819055505050565b60058111158015610f0357506002600083815260200190815260200160002060040160009054906101000a900460ff16155b15610f535760016002600084815260200190815260200160002060040160006101000a81548160ff021916908315150217905550610f52600260008481526020019081526020016000206110cf565b5b600581118015610f8357506002600083815260200190815260200160002060040160009054906101000a900460ff165b15610fd35760006002600084815260200190815260200160002060040160006101000a81548160ff021916908315150217905550610fd2600260008481526020019081526020016000206110f2565b5b5050565b6020604051908101604052806000815250816000019080519060200190610fff9291906111df565b50600081600101819055506000816002018190555050565b60008083141561102a576000905061104c565b6000828402905082848281151561103d57fe5b0414151561104757fe5b809150505b92915050565b61105a61125f565b61106261125f565b60a06040519081016040528088815260200187815260200186815260200185815260200184151581525090508091505095945050505050565b60008082848115156110a957fe5b0490508091505092915050565b60008282111515156110c457fe5b818303905092915050565b6110e7600a826001015461111590919063ffffffff16565b816001018190555050565b61110a600a82600101546110b690919063ffffffff16565b816001018190555050565b600080828401905083811015151561112957fe5b8091505092915050565b81548183558181111561115a578183600052602060002091820191016111599190611291565b5b505050565b828054600181600116156101000203166002900490600052602060002090601f016020900481019282601f106111a057805160ff19168380011785556111ce565b828001600101855582156111ce579182015b828111156111cd5782518255916020019190600101906111b2565b5b5090506111db91906112b6565b5090565b828054600181600116156101000203166002900490600052602060002090601f016020900481019282601f1061122057805160ff191683800117855561124e565b8280016001018555821561124e579182015b8281111561124d578251825591602001919060010190611232565b5b50905061125b91906112b6565b5090565b60a060405190810160405280606081526020016000815260200160008152602001600081526020016000151581525090565b6112b391905b808211156112af576000816000905550600101611297565b5090565b90565b6112d891905b808211156112d45760008160009055506001016112bc565b5090565b90565b60006112e782356117ef565b905092915050565b60006112fb8235611801565b905092915050565b600082601f830112151561131657600080fd5b81356113296113248261173b565b61170e565b9150808252602083016020830185838301111561134557600080fd5b611350838284611815565b50505092915050565b6000611365823561180b565b905092915050565b60006020828403121561137f57600080fd5b600061138d848285016112db565b91505092915050565b6000602082840312156113a857600080fd5b60006113b6848285016112ef565b91505092915050565b600080604083850312156113d257600080fd5b60006113e0858286016112ef565b92505060206113f185828601611359565b9150509250929050565b60008060006060848603121561141057600080fd5b600084013567ffffffffffffffff81111561142a57600080fd5b61143686828701611303565b935050602061144786828701611359565b925050604061145886828701611359565b9150509250925092565b61146b816117a9565b82525050565b600061147c82611786565b80845260208401935061148e83611767565b60005b828110156114c0576114a48683516114cc565b6114ad8261179c565b9150602086019550600181019050611491565b50849250505092915050565b6114d5816117bb565b82525050565b60006114e682611791565b8084526114fa816020860160208601611824565b61150381611857565b602085010191505092915050565b60008154600181166000811461152e576001811461154e5761158f565b607f600283041680865260ff19831660208701526040860193505061158f565b6002820480865260208601955061156485611774565b60005b8281101561158657815481890152600182019150602081019050611567565b80880195505050505b505092915050565b6000601a82527f436f6e747261637420616c726561647920686173206f776e65720000000000006020830152604082019050919050565b6115d7816117e5565b82525050565b60006020820190506115f26000830184611462565b92915050565b600060208201905081810360008301526116128184611471565b905092915050565b600060208201905061162f60008301846114cc565b92915050565b6000604082019050818103600083015261164f81856114db565b905061165e60208301846114cc565b9392505050565b6000606082019050818103600083015261167f81866114db565b905061168e60208301856115ce565b61169b60408301846115ce565b949350505050565b600060408201905081810360008301526116bd8185611511565b90506116cc60208301846115ce565b9392505050565b600060208201905081810360008301526116ec81611597565b9050919050565b600060208201905061170860008301846115ce565b92915050565b6000604051905081810181811067ffffffffffffffff8211171561173157600080fd5b8060405250919050565b600067ffffffffffffffff82111561175257600080fd5b601f19601f8301169050602081019050919050565b6000602082019050919050565b60008160005260206000209050919050565b600081519050919050565b600081519050919050565b6000602082019050919050565b60006117b4826117c5565b9050919050565b6000819050919050565b600073ffffffffffffffffffffffffffffffffffffffff82169050919050565b6000819050919050565b60006117fa826117c5565b9050919050565b6000819050919050565b6000819050919050565b82818337600083830152505050565b60005b83811015611842578082015181840152602081019050611827565b83811115611851576000848401525b50505050565b6000601f19601f830116905091905056fea265627a7a72305820187f70c1c683470c2b30abe9ca16f5736fce8157d7e33be76e91c0b07e0ae26a6c6578706572696d656e74616cf50037",
  "source": "pragma solidity ^0.5.0;\npragma experimental ABIEncoderV2;\nimport '../Upgradeability/OwnableUpgradeableImplementation.sol';\nimport './SafeMath.sol';\nimport './ProductLib.sol';\nimport './Icontracts/IMarketplace.sol';\n\ncontract Marketplace is IMarketplace, OwnableUpgradeableImplementation {\n    using SafeMath for uint;\n    using ProductLib for ProductLib.Product;\n    \n    event LogNewProduct(string name, bytes32 ID);\n    event LogPurchase(string productName, uint quantity);\n    \n\n    mapping (bytes32 => ProductLib.Product) stock;\n    bytes32[] allProductsID;\n\n    function buy(bytes32 ID, uint quantity) public payable {\n        require(stock[ID].canBeBought(msg.value, quantity));\n        require(stock[ID].productExist());\n        stock[ID].buyProduct(quantity);\n\n        emit LogPurchase(stock[ID].name, quantity);\n        \n        //increase the price if stock scarcity\n        updatePrice(ID, stock[ID].quantity);\n    }\n    \n    function update(bytes32 ID, uint newQuantity) public onlyOwner {\n        require(stock[ID].productExist());\n        \n        stock[ID].quantity = newQuantity;\n        \n        //increase or restore the price\n        updatePrice(ID, newQuantity);\n    }\n    \n    function updatePrice(bytes32 ID, uint newQuantity) internal {\n        if(newQuantity <= 5 && !stock[ID].wasIncreased){\n            stock[ID].wasIncreased = true;\n            stock[ID].increasePriceOnLowQuantity();\n        }\n        if(newQuantity > 5 && stock[ID].wasIncreased){\n            stock[ID].wasIncreased = false;\n            stock[ID].restorePrice();\n        }\n    }\n    \n    //creates a new product and returns its ID\n    function newProduct(string memory name, uint price, uint quantity) public onlyOwner returns(bytes32) {\n        bytes32 ID =  keccak256(abi.encodePacked(name));// the ID is the hash of product name\n        require(!stock[ID].productExist());\n        allProductsID.push(ID);//add the ID to the array\n\n        stock[ID] = ProductLib.regNewProduct(name, price, quantity, allProductsID.length-1, false);\n        \n        emit LogNewProduct(name, ID);\n        assert(stock[ID].quantity == quantity);\n        return ID;\n    }\n    \n    function removeProduct(bytes32 ID) public onlyOwner {\n        require(stock[ID].productExist());\n        stock[ID].removeProduct();\n        \n        //remove the productID from the array\n        uint index = stock[ID].IDindex;//take the index of the ID\n        delete allProductsID[index];//delete the ID with certain index\n        //to fill the gap, take the last value of the array\n        //and store it at the index of the deleted ID\n        allProductsID[index] = allProductsID[allProductsID.length-1];\n        stock[allProductsID[allProductsID.length-1]].IDindex = index;\n        allProductsID.length--; //remove the last value and index\n    }\n    \n    function getProduct(bytes32 ID) public view returns(string memory name, uint price, uint quantity) {\n        return (stock[ID].name, stock[ID].price, stock[ID].quantity);\n    }\n    \n    function getProducts() public view returns(bytes32[] memory) {\n        return allProductsID;\n    }\n    \n    function getPrice(bytes32 ID, uint quantity) public view returns (uint) {\n        require(stock[ID].quantity >= quantity);\n        return stock[ID].price.mul(quantity);\n    }\n    \n    // function withdraw() public onlyOwner {\n    //     owner.transfer(address(this).balance);\n    // }\n    \n    function getBalance() public view returns (uint){\n        return address(this).balance;\n    }\n}",
  "sourcePath": "/Users/desimiramitkova/Projects/marketplace/contracts/Marketplace/Marketplace.sol",
  "compiler": {
    "name": "solc",
    "version": "0.5.2+commit.1df8f40c.Emscripten.clang"
  },
  "schemaVersion": "0.9.19",
  "updatedAt": "2019-01-02T12:07:55.649Z"
}