{
  "contractName": "Marketplace2",
  "abi": [
    {
      "constant": false,
      "inputs": [
        {
          "name": "_newImpl",
          "type": "address"
        }
      ],
      "name": "upgradeImplementation",
      "outputs": [],
      "payable": false,
      "stateMutability": "nonpayable",
      "type": "function"
    },
    {
      "constant": true,
      "inputs": [],
      "name": "getOwner",
      "outputs": [
        {
          "name": "",
          "type": "address"
        }
      ],
      "payable": false,
      "stateMutability": "view",
      "type": "function"
    },
    {
      "constant": true,
      "inputs": [],
      "name": "contractImplementation",
      "outputs": [
        {
          "name": "",
          "type": "address"
        }
      ],
      "payable": false,
      "stateMutability": "view",
      "type": "function"
    },
    {
      "constant": true,
      "inputs": [],
      "name": "getImplementation",
      "outputs": [
        {
          "name": "",
          "type": "address"
        }
      ],
      "payable": false,
      "stateMutability": "view",
      "type": "function"
    },
    {
      "constant": false,
      "inputs": [],
      "name": "init",
      "outputs": [],
      "payable": false,
      "stateMutability": "nonpayable",
      "type": "function"
    },
    {
      "constant": false,
      "inputs": [
        {
          "name": "newOwner",
          "type": "address"
        }
      ],
      "name": "transferOwnership",
      "outputs": [],
      "payable": false,
      "stateMutability": "nonpayable",
      "type": "function"
    },
    {
      "anonymous": false,
      "inputs": [
        {
          "indexed": false,
          "name": "name",
          "type": "string"
        },
        {
          "indexed": false,
          "name": "ID",
          "type": "bytes32"
        }
      ],
      "name": "LogNewProduct",
      "type": "event"
    },
    {
      "anonymous": false,
      "inputs": [
        {
          "indexed": false,
          "name": "productName",
          "type": "string"
        },
        {
          "indexed": false,
          "name": "quantity",
          "type": "uint256"
        }
      ],
      "name": "LogPurchase",
      "type": "event"
    },
    {
      "anonymous": false,
      "inputs": [
        {
          "indexed": true,
          "name": "_newImpl",
          "type": "address"
        }
      ],
      "name": "UpgradedContract",
      "type": "event"
    },
    {
      "anonymous": false,
      "inputs": [
        {
          "indexed": true,
          "name": "previousOwner",
          "type": "address"
        },
        {
          "indexed": true,
          "name": "newOwner",
          "type": "address"
        }
      ],
      "name": "OwnershipTransferred",
      "type": "event"
    },
    {
      "constant": false,
      "inputs": [
        {
          "name": "ID",
          "type": "bytes32"
        },
        {
          "name": "quantity",
          "type": "uint256"
        }
      ],
      "name": "buy",
      "outputs": [],
      "payable": true,
      "stateMutability": "payable",
      "type": "function"
    },
    {
      "constant": false,
      "inputs": [
        {
          "name": "ID",
          "type": "bytes32"
        },
        {
          "name": "newQuantity",
          "type": "uint256"
        }
      ],
      "name": "update",
      "outputs": [],
      "payable": false,
      "stateMutability": "nonpayable",
      "type": "function"
    },
    {
      "constant": false,
      "inputs": [
        {
          "name": "name",
          "type": "string"
        },
        {
          "name": "price",
          "type": "uint256"
        },
        {
          "name": "quantity",
          "type": "uint256"
        }
      ],
      "name": "newProduct",
      "outputs": [
        {
          "name": "",
          "type": "bytes32"
        }
      ],
      "payable": false,
      "stateMutability": "nonpayable",
      "type": "function"
    },
    {
      "constant": false,
      "inputs": [
        {
          "name": "ID",
          "type": "bytes32"
        }
      ],
      "name": "removeProduct",
      "outputs": [],
      "payable": false,
      "stateMutability": "nonpayable",
      "type": "function"
    },
    {
      "constant": false,
      "inputs": [
        {
          "name": "ID",
          "type": "bytes32"
        },
        {
          "name": "newPrice",
          "type": "uint256"
        }
      ],
      "name": "increasePrice",
      "outputs": [],
      "payable": false,
      "stateMutability": "nonpayable",
      "type": "function"
    },
    {
      "constant": true,
      "inputs": [
        {
          "name": "ID",
          "type": "bytes32"
        }
      ],
      "name": "getProduct",
      "outputs": [
        {
          "name": "name",
          "type": "string"
        },
        {
          "name": "price",
          "type": "uint256"
        },
        {
          "name": "quantity",
          "type": "uint256"
        }
      ],
      "payable": false,
      "stateMutability": "view",
      "type": "function"
    },
    {
      "constant": true,
      "inputs": [],
      "name": "getProducts",
      "outputs": [
        {
          "name": "",
          "type": "bytes32[]"
        }
      ],
      "payable": false,
      "stateMutability": "view",
      "type": "function"
    },
    {
      "constant": true,
      "inputs": [
        {
          "name": "ID",
          "type": "bytes32"
        },
        {
          "name": "quantity",
          "type": "uint256"
        }
      ],
      "name": "getPrice",
      "outputs": [
        {
          "name": "",
          "type": "uint256"
        }
      ],
      "payable": false,
      "stateMutability": "view",
      "type": "function"
    },
    {
      "constant": true,
      "inputs": [],
      "name": "getBalance",
      "outputs": [
        {
          "name": "",
          "type": "uint256"
        }
      ],
      "payable": false,
      "stateMutability": "view",
      "type": "function"
    }
  ],
  "bytecode": "0x608060405234801561001057600080fd5b506119d7806100206000396000f3fe608060405260043610610105576000357c010000000000000000000000000000000000000000000000000000000090048063a26ea496116100a7578063c9280f0611610076578063c9280f06146102e0578063e1c7392a1461031d578063e6f2642514610334578063f2fde38b1461037157610105565b8063a26ea49614610238578063a58bb84a14610261578063aaf10f421461028a578063c29b2f20146102b557610105565b80633a20e9df116100e35780633a20e9df1461017a57806383f94db7146101b9578063893d20e8146101e25780639e72370b1461020d57610105565b80630ddeb6321461010a57806312065fe0146101265780632cf3254e14610151575b600080fd5b610124600480360361011f91908101906114f4565b61039a565b005b34801561013257600080fd5b5061013b61048b565b6040516101489190611828565b60405180910390f35b34801561015d57600080fd5b50610178600480360361017391908101906114f4565b6104aa565b005b34801561018657600080fd5b506101a1600480360361019c91908101906114cb565b61054d565b6040516101b09392919061179a565b60405180910390f35b3480156101c557600080fd5b506101e060048036036101db91908101906114a2565b610667565b005b3480156101ee57600080fd5b506101f7610749565b6040516102049190611712565b60405180910390f35b34801561021957600080fd5b50610222610773565b60405161022f9190611712565b60405180910390f35b34801561024457600080fd5b5061025f600480360361025a91908101906114cb565b610798565b005b34801561026d57600080fd5b50610288600480360361028391908101906114f4565b610904565b005b34801561029657600080fd5b5061029f6109b1565b6040516102ac9190611712565b60405180910390f35b3480156102c157600080fd5b506102ca6109da565b6040516102d7919061172d565b60405180910390f35b3480156102ec57600080fd5b50610307600480360361030291908101906114f4565b610a32565b6040516103149190611828565b60405180910390f35b34801561032957600080fd5b50610332610ab2565b005b34801561034057600080fd5b5061035b60048036036103569190810190611530565b610b88565b604051610368919061174f565b60405180910390f35b34801561037d57600080fd5b50610398600480360361039391908101906114a2565b610d9d565b005b816103b660026000838152602001908152602001600020610ef5565b15156103c157600080fd5b6103e8348360026000878152602001908152602001600020610fa69092919063ffffffff16565b15156103f357600080fd5b6104188260026000868152602001908152602001600020610fdb90919063ffffffff16565b7ffdf9fde64a309b920567412fe6a933942ccfff6922806daebff52e68fe269c90600260008581526020019081526020016000206000018360405161045e9291906117d8565b60405180910390a1610486836002600086815260200190815260200160002060020154610ffe565b505050565b60003073ffffffffffffffffffffffffffffffffffffffff1631905090565b600160009054906101000a900473ffffffffffffffffffffffffffffffffffffffff1673ffffffffffffffffffffffffffffffffffffffff163373ffffffffffffffffffffffffffffffffffffffff1614151561050657600080fd5b8161052260026000838152602001908152602001600020610ef5565b151561052d57600080fd5b816002600085815260200190815260200160002060010181905550505050565b60606000808361056e60026000838152602001908152602001600020610ef5565b151561057957600080fd5b6002600086815260200190815260200160002060000160026000878152602001908152602001600020600101546002600088815260200190815260200160002060020154828054600181600116156101000203166002900480601f0160208091040260200160405190810160405280929190818152602001828054600181600116156101000203166002900480156106525780601f1061062757610100808354040283529160200191610652565b820191906000526020600020905b81548152906001019060200180831161063557829003601f168201915b50505050509250935093509350509193909250565b600160009054906101000a900473ffffffffffffffffffffffffffffffffffffffff1673ffffffffffffffffffffffffffffffffffffffff163373ffffffffffffffffffffffffffffffffffffffff161415156106c357600080fd5b806000806101000a81548173ffffffffffffffffffffffffffffffffffffffff021916908373ffffffffffffffffffffffffffffffffffffffff1602179055508073ffffffffffffffffffffffffffffffffffffffff167fbb0e7ec411133f2e650f59a5c752be1a0f548c2140421e80171b2f9b1ff833a960405160405180910390a250565b6000600160009054906101000a900473ffffffffffffffffffffffffffffffffffffffff16905090565b6000809054906101000a900473ffffffffffffffffffffffffffffffffffffffff1681565b600160009054906101000a900473ffffffffffffffffffffffffffffffffffffffff1673ffffffffffffffffffffffffffffffffffffffff163373ffffffffffffffffffffffffffffffffffffffff161415156107f457600080fd5b8061081060026000838152602001908152602001600020610ef5565b151561081b57600080fd5b61083660026000848152602001908152602001600020611104565b60006002600084815260200190815260200160002060030154905060038181548110151561086057fe5b9060005260206000200160009055600360016003805490500381548110151561088557fe5b906000526020600020015460038281548110151561089f57fe5b9060005260206000200181905550806002600060036001600380549050038154811015156108c957fe5b906000526020600020015481526020019081526020016000206003018190555060038054809190600190036108fe9190611268565b50505050565b600160009054906101000a900473ffffffffffffffffffffffffffffffffffffffff1673ffffffffffffffffffffffffffffffffffffffff163373ffffffffffffffffffffffffffffffffffffffff1614151561096057600080fd5b8161097c60026000838152602001908152602001600020610ef5565b151561098757600080fd5b8160026000858152602001908152602001600020600201819055506109ac8383610ffe565b505050565b60008060009054906101000a900473ffffffffffffffffffffffffffffffffffffffff16905090565b60606003805480602002602001604051908101604052809291908181526020018280548015610a2857602002820191906000526020600020905b815481526020019060010190808311610a14575b5050505050905090565b600082610a5060026000838152602001908152602001600020610ef5565b1515610a5b57600080fd5b82600260008681526020019081526020016000206002015410151515610a8057600080fd5b610aa983600260008781526020019081526020016000206001015461114490919063ffffffff16565b91505092915050565b600073ffffffffffffffffffffffffffffffffffffffff16600160009054906101000a900473ffffffffffffffffffffffffffffffffffffffff1673ffffffffffffffffffffffffffffffffffffffff16141515610b45576040517f08c379a0000000000000000000000000000000000000000000000000000000008152600401610b3c90611808565b60405180910390fd5b33600160006101000a81548173ffffffffffffffffffffffffffffffffffffffff021916908373ffffffffffffffffffffffffffffffffffffffff160217905550565b6000600160009054906101000a900473ffffffffffffffffffffffffffffffffffffffff1673ffffffffffffffffffffffffffffffffffffffff163373ffffffffffffffffffffffffffffffffffffffff16141515610be657600080fd5b6000846040516020018082805190602001908083835b602083101515610c215780518252602082019150602081019050602083039250610bfc565b6001836020036101000a038019825116818451168082178552505050505050905001915050604051602081830303815290604052805190602001209050610c7960026000838152602001908152602001600020610ef5565b151515610c8557600080fd5b6003819080600181540180825580915050906001820390600052602060002001600090919290919091505550610cc7858585600160038054905003600061117f565b600260008381526020019081526020016000206000820151816000019080519060200190610cf6929190611294565b5060208201518160010155604082015181600201556060820151816003015560808201518160040160006101000a81548160ff0219169083151502179055509050507fb3537ec7ff479a1e147dda5183197ab20ad12fb10af0b0cf0e7a6bccbc47eda98582604051610d6992919061176a565b60405180910390a1826002600083815260200190815260200160002060020154141515610d9257fe5b809150509392505050565b600160009054906101000a900473ffffffffffffffffffffffffffffffffffffffff1673ffffffffffffffffffffffffffffffffffffffff163373ffffffffffffffffffffffffffffffffffffffff16141515610df957600080fd5b600073ffffffffffffffffffffffffffffffffffffffff168173ffffffffffffffffffffffffffffffffffffffff1614151515610e3557600080fd5b8073ffffffffffffffffffffffffffffffffffffffff16600160009054906101000a900473ffffffffffffffffffffffffffffffffffffffff1673ffffffffffffffffffffffffffffffffffffffff167f8be0079c531659141344cd1fd0a4f28419497f9722a3daafe3b4186f6b6457e060405160405180910390a380600160006101000a81548173ffffffffffffffffffffffffffffffffffffffff021916908373ffffffffffffffffffffffffffffffffffffffff16021790555050565b60006060826000018054600181600116156101000203166002900480601f016020809104026020016040519081016040528092919081815260200182805460018160011615610100020316600290048015610f915780601f10610f6657610100808354040283529160200191610f91565b820191906000526020600020905b815481529060010190602001808311610f7457829003601f168201915b50505050509050600081511415915050919050565b6000610fbb82846111c890919063ffffffff16565b846001015411158015610fd2575081846002015410155b90509392505050565b610ff28183600201546111e390919063ffffffff16565b82600201819055505050565b6005811115801561103057506002600083815260200190815260200160002060040160009054906101000a900460ff16155b156110805760016002600084815260200190815260200160002060040160006101000a81548160ff02191690831515021790555061107f600260008481526020019081526020016000206111fc565b5b6005811180156110b057506002600083815260200190815260200160002060040160009054906101000a900460ff165b156111005760006002600084815260200190815260200160002060040160006101000a81548160ff0219169083151502179055506110ff60026000848152602001908152602001600020611232565b5b5050565b602060405190810160405280600081525081600001908051906020019061112c929190611314565b50600081600101819055506000816002018190555050565b6000808314156111575760009050611179565b6000828402905082848281151561116a57fe5b0414151561117457fe5b809150505b92915050565b611187611394565b61118f611394565b60a06040519081016040528088815260200187815260200186815260200185815260200184151581525090508091505095945050505050565b60008082848115156111d657fe5b0490508091505092915050565b60008282111515156111f157fe5b818303905092915050565b611227600a611219600c846001015461114490919063ffffffff16565b6111c890919063ffffffff16565b816001018190555050565b61125d600a61124f600c84600101546111c890919063ffffffff16565b61114490919063ffffffff16565b816001018190555050565b81548183558181111561128f5781836000526020600020918201910161128e91906113c6565b5b505050565b828054600181600116156101000203166002900490600052602060002090601f016020900481019282601f106112d557805160ff1916838001178555611303565b82800160010185558215611303579182015b828111156113025782518255916020019190600101906112e7565b5b50905061131091906113eb565b5090565b828054600181600116156101000203166002900490600052602060002090601f016020900481019282601f1061135557805160ff1916838001178555611383565b82800160010185558215611383579182015b82811115611382578251825591602001919060010190611367565b5b50905061139091906113eb565b5090565b60a060405190810160405280606081526020016000815260200160008152602001600081526020016000151581525090565b6113e891905b808211156113e45760008160009055506001016113cc565b5090565b90565b61140d91905b808211156114095760008160009055506001016113f1565b5090565b90565b600061141c8235611924565b905092915050565b60006114308235611936565b905092915050565b600082601f830112151561144b57600080fd5b813561145e61145982611870565b611843565b9150808252602083016020830185838301111561147a57600080fd5b61148583828461194a565b50505092915050565b600061149a8235611940565b905092915050565b6000602082840312156114b457600080fd5b60006114c284828501611410565b91505092915050565b6000602082840312156114dd57600080fd5b60006114eb84828501611424565b91505092915050565b6000806040838503121561150757600080fd5b600061151585828601611424565b92505060206115268582860161148e565b9150509250929050565b60008060006060848603121561154557600080fd5b600084013567ffffffffffffffff81111561155f57600080fd5b61156b86828701611438565b935050602061157c8682870161148e565b925050604061158d8682870161148e565b9150509250925092565b6115a0816118de565b82525050565b60006115b1826118bb565b8084526020840193506115c38361189c565b60005b828110156115f5576115d9868351611601565b6115e2826118d1565b91506020860195506001810190506115c6565b50849250505092915050565b61160a816118f0565b82525050565b600061161b826118c6565b80845261162f816020860160208601611959565b6116388161198c565b602085010191505092915050565b6000815460018116600081146116635760018114611683576116c4565b607f600283041680865260ff1983166020870152604086019350506116c4565b60028204808652602086019550611699856118a9565b60005b828110156116bb5781548189015260018201915060208101905061169c565b80880195505050505b505092915050565b6000601a82527f436f6e747261637420616c726561647920686173206f776e65720000000000006020830152604082019050919050565b61170c8161191a565b82525050565b60006020820190506117276000830184611597565b92915050565b6000602082019050818103600083015261174781846115a6565b905092915050565b60006020820190506117646000830184611601565b92915050565b600060408201905081810360008301526117848185611610565b90506117936020830184611601565b9392505050565b600060608201905081810360008301526117b48186611610565b90506117c36020830185611703565b6117d06040830184611703565b949350505050565b600060408201905081810360008301526117f28185611646565b90506118016020830184611703565b9392505050565b60006020820190508181036000830152611821816116cc565b9050919050565b600060208201905061183d6000830184611703565b92915050565b6000604051905081810181811067ffffffffffffffff8211171561186657600080fd5b8060405250919050565b600067ffffffffffffffff82111561188757600080fd5b601f19601f8301169050602081019050919050565b6000602082019050919050565b60008160005260206000209050919050565b600081519050919050565b600081519050919050565b6000602082019050919050565b60006118e9826118fa565b9050919050565b6000819050919050565b600073ffffffffffffffffffffffffffffffffffffffff82169050919050565b6000819050919050565b600061192f826118fa565b9050919050565b6000819050919050565b6000819050919050565b82818337600083830152505050565b60005b8381101561197757808201518184015260208101905061195c565b83811115611986576000848401525b50505050565b6000601f19601f830116905091905056fea265627a7a72305820c1dd126d5db27a0bbea2ad7ce55d6cd28b98c1179f4bfa2c6010d32e1b6d031d6c6578706572696d656e74616cf50037",
  "source": "pragma solidity ^0.5.0;\npragma experimental ABIEncoderV2;\nimport '../Upgradeability/OwnableUpgradeableImplementation.sol';\nimport './SafeMath.sol';\nimport './ProductLib2.sol';\nimport './Icontracts/IMarketplace2.sol';\n\n\ncontract Marketplace2 is IMarketplace2, OwnableUpgradeableImplementation {\n    using SafeMath for uint;\n    using ProductLib2 for ProductLib2.Product;\n    \n    event LogNewProduct(string name, bytes32 ID);\n    event LogPurchase(string productName, uint quantity);\n    \n\n    mapping (bytes32 => ProductLib2.Product) stock;\n    bytes32[] allProductsID;\n\n    modifier productExist(bytes32 ID) {\n        require(stock[ID].productExist());\n        _;\n    }\n\n    function buy(bytes32 ID, uint quantity) public payable productExist(ID) {\n        require(stock[ID].canBeBought(msg.value, quantity));\n        stock[ID].buyProduct(quantity);\n\n        emit LogPurchase(stock[ID].name, quantity);\n        \n        //increase the price if stock scarcity\n        updatePrice(ID, stock[ID].quantity);\n    }\n    \n    function update(bytes32 ID, uint newQuantity) public onlyOwner productExist(ID) {\n        \n        stock[ID].quantity = newQuantity;\n        \n        //increase or restore the price\n        updatePrice(ID, newQuantity);\n    }\n    \n    function updatePrice(bytes32 ID, uint newQuantity) internal {\n        if(newQuantity <= 5 && !stock[ID].wasIncreased){\n            stock[ID].wasIncreased = true;\n            stock[ID].increasePriceOnLowQuantity();\n        }\n        if(newQuantity > 5 && stock[ID].wasIncreased){\n            stock[ID].wasIncreased = false;\n            stock[ID].restorePrice();\n        }\n    }\n    \n    //creates a new product and returns its ID\n    function newProduct(string memory name, uint price, uint quantity) public onlyOwner returns(bytes32) {\n        bytes32 ID =  keccak256(abi.encodePacked(name));// the ID is the hash of product name\n        require(!stock[ID].productExist());\n        allProductsID.push(ID);//add the ID to the array\n\n        stock[ID] = ProductLib2.regNewProduct(name, price, quantity, allProductsID.length-1, false);\n        \n        emit LogNewProduct(name, ID);\n        assert(stock[ID].quantity == quantity);\n        return ID;\n    }\n    \n    function removeProduct(bytes32 ID) public onlyOwner productExist(ID) {\n        stock[ID].removeProduct();\n        \n        //remove the productID from the array\n        uint index = stock[ID].IDindex;//take the index of the ID\n        delete allProductsID[index];//delete the ID with certain index\n        //to fill the gap, take the last value of the array\n        //and store it at the index of the deleted ID\n        allProductsID[index] = allProductsID[allProductsID.length-1];\n        stock[allProductsID[allProductsID.length-1]].IDindex = index;\n        allProductsID.length--; //remove the last value and index\n    }\n\n    function increasePrice(bytes32 ID, uint newPrice) public onlyOwner productExist(ID) {\n        stock[ID].price = newPrice;\n    }\n    \n    function getProduct(bytes32 ID) public view productExist(ID) returns(string memory name, uint price, uint quantity) {\n        return (stock[ID].name, stock[ID].price, stock[ID].quantity);\n    }\n    \n    function getProducts() public view returns(bytes32[] memory) {\n        return allProductsID;\n    }\n    \n    function getPrice(bytes32 ID, uint quantity) public view productExist(ID) returns (uint) {\n        require(stock[ID].quantity >= quantity);\n        return stock[ID].price.mul(quantity);\n    }\n    \n    // function withdraw() public onlyOwner {\n    //     owner.transfer(address(this).balance);\n    // }\n    \n    function getBalance() public view returns (uint){\n        return address(this).balance;\n    }\n}",
  "sourcePath": "/Users/desimiramitkova/Projects/marketplace/contracts/Marketplace/Marketplace2.sol",
  "compiler": {
    "name": "solc",
    "version": "0.5.2+commit.1df8f40c.Emscripten.clang"
  },
  "schemaVersion": "0.9.19",
  "updatedAt": "2019-01-02T12:07:55.654Z"
}