{
  "contractName": "Marketplace",
  "abi": [
    {
      "constant": false,
      "inputs": [
        {
          "name": "_newImpl",
          "type": "address"
        }
      ],
      "name": "upgradeImplementation",
      "outputs": [],
      "payable": false,
      "stateMutability": "nonpayable",
      "type": "function"
    },
    {
      "constant": true,
      "inputs": [],
      "name": "getOwner",
      "outputs": [
        {
          "name": "",
          "type": "address"
        }
      ],
      "payable": false,
      "stateMutability": "view",
      "type": "function"
    },
    {
      "constant": true,
      "inputs": [],
      "name": "owner",
      "outputs": [
        {
          "name": "",
          "type": "address"
        }
      ],
      "payable": false,
      "stateMutability": "view",
      "type": "function"
    },
    {
      "constant": true,
      "inputs": [],
      "name": "contractImplementation",
      "outputs": [
        {
          "name": "",
          "type": "address"
        }
      ],
      "payable": false,
      "stateMutability": "view",
      "type": "function"
    },
    {
      "constant": true,
      "inputs": [],
      "name": "getImplementation",
      "outputs": [
        {
          "name": "",
          "type": "address"
        }
      ],
      "payable": false,
      "stateMutability": "view",
      "type": "function"
    },
    {
      "constant": false,
      "inputs": [],
      "name": "init",
      "outputs": [],
      "payable": false,
      "stateMutability": "nonpayable",
      "type": "function"
    },
    {
      "constant": false,
      "inputs": [
        {
          "name": "newOwner",
          "type": "address"
        }
      ],
      "name": "transferOwnership",
      "outputs": [],
      "payable": false,
      "stateMutability": "nonpayable",
      "type": "function"
    },
    {
      "anonymous": false,
      "inputs": [
        {
          "indexed": true,
          "name": "_newImpl",
          "type": "address"
        }
      ],
      "name": "UpgradedContract",
      "type": "event"
    },
    {
      "anonymous": false,
      "inputs": [
        {
          "indexed": true,
          "name": "previousOwner",
          "type": "address"
        },
        {
          "indexed": true,
          "name": "newOwner",
          "type": "address"
        }
      ],
      "name": "OwnershipTransferred",
      "type": "event"
    },
    {
      "anonymous": false,
      "inputs": [
        {
          "indexed": false,
          "name": "name",
          "type": "string"
        },
        {
          "indexed": false,
          "name": "ID",
          "type": "bytes32"
        }
      ],
      "name": "LogNewProduct",
      "type": "event"
    },
    {
      "anonymous": false,
      "inputs": [
        {
          "indexed": false,
          "name": "productName",
          "type": "string"
        },
        {
          "indexed": false,
          "name": "quantity",
          "type": "uint256"
        }
      ],
      "name": "LogPurchase",
      "type": "event"
    },
    {
      "constant": false,
      "inputs": [
        {
          "name": "ID",
          "type": "bytes32"
        },
        {
          "name": "quantity",
          "type": "uint256"
        }
      ],
      "name": "buy",
      "outputs": [],
      "payable": true,
      "stateMutability": "payable",
      "type": "function"
    },
    {
      "constant": false,
      "inputs": [
        {
          "name": "ID",
          "type": "bytes32"
        },
        {
          "name": "newQuantity",
          "type": "uint256"
        }
      ],
      "name": "update",
      "outputs": [],
      "payable": false,
      "stateMutability": "nonpayable",
      "type": "function"
    },
    {
      "constant": false,
      "inputs": [
        {
          "name": "name",
          "type": "string"
        },
        {
          "name": "price",
          "type": "uint256"
        },
        {
          "name": "quantity",
          "type": "uint256"
        }
      ],
      "name": "newProduct",
      "outputs": [
        {
          "name": "",
          "type": "bytes32"
        }
      ],
      "payable": false,
      "stateMutability": "nonpayable",
      "type": "function"
    },
    {
      "constant": false,
      "inputs": [
        {
          "name": "ID",
          "type": "bytes32"
        }
      ],
      "name": "removeProduct",
      "outputs": [],
      "payable": false,
      "stateMutability": "nonpayable",
      "type": "function"
    },
    {
      "constant": true,
      "inputs": [
        {
          "name": "ID",
          "type": "bytes32"
        }
      ],
      "name": "getProduct",
      "outputs": [
        {
          "name": "name",
          "type": "string"
        },
        {
          "name": "price",
          "type": "uint256"
        },
        {
          "name": "quantity",
          "type": "uint256"
        }
      ],
      "payable": false,
      "stateMutability": "view",
      "type": "function"
    },
    {
      "constant": true,
      "inputs": [],
      "name": "getProducts",
      "outputs": [
        {
          "name": "",
          "type": "bytes32[]"
        }
      ],
      "payable": false,
      "stateMutability": "view",
      "type": "function"
    },
    {
      "constant": true,
      "inputs": [
        {
          "name": "ID",
          "type": "bytes32"
        },
        {
          "name": "quantity",
          "type": "uint256"
        }
      ],
      "name": "getPrice",
      "outputs": [
        {
          "name": "",
          "type": "uint256"
        }
      ],
      "payable": false,
      "stateMutability": "view",
      "type": "function"
    },
    {
      "constant": false,
      "inputs": [],
      "name": "withdraw",
      "outputs": [],
      "payable": false,
      "stateMutability": "nonpayable",
      "type": "function"
    },
    {
      "constant": true,
      "inputs": [],
      "name": "getBalance",
      "outputs": [
        {
          "name": "",
          "type": "uint256"
        }
      ],
      "payable": false,
      "stateMutability": "view",
      "type": "function"
    }
  ],
  "bytecode": "0x608060405234801561001057600080fd5b50611863806100206000396000f3006080604052600436106100e6576000357c0100000000000000000000000000000000000000000000000000000000900463ffffffff1680630ddeb632146100eb57806312065fe0146101195780633a20e9df146101445780633ccfd60b146101fc57806383f94db714610213578063893d20e8146102565780638da5cb5b146102ad5780639e72370b14610304578063a26ea4961461035b578063a58bb84a1461038c578063aaf10f42146103c7578063c29b2f201461041e578063c9280f061461048a578063e1c7392a146104d9578063e6f26425146104f0578063f2fde38b14610589575b600080fd5b6101176004803603810190808035600019169060200190929190803590602001909291905050506105cc565b005b34801561012557600080fd5b5061012e61076b565b6040518082815260200191505060405180910390f35b34801561015057600080fd5b50610173600480360381019080803560001916906020019092919050505061078a565b6040518080602001848152602001838152602001828103825285818151815260200191508051906020019080838360005b838110156101bf5780820151818401526020810190506101a4565b50505050905090810190601f1680156101ec5780820380516001836020036101000a031916815260200191505b5094505050505060405180910390f35b34801561020857600080fd5b50610211610894565b005b34801561021f57600080fd5b50610254600480360381019080803573ffffffffffffffffffffffffffffffffffffffff169060200190929190505050610972565b005b34801561026257600080fd5b5061026b610a54565b604051808273ffffffffffffffffffffffffffffffffffffffff1673ffffffffffffffffffffffffffffffffffffffff16815260200191505060405180910390f35b3480156102b957600080fd5b506102c2610a7e565b604051808273ffffffffffffffffffffffffffffffffffffffff1673ffffffffffffffffffffffffffffffffffffffff16815260200191505060405180910390f35b34801561031057600080fd5b50610319610aa4565b604051808273ffffffffffffffffffffffffffffffffffffffff1673ffffffffffffffffffffffffffffffffffffffff16815260200191505060405180910390f35b34801561036757600080fd5b5061038a6004803603810190808035600019169060200190929190505050610ac9565b005b34801561039857600080fd5b506103c5600480360381019080803560001916906020019092919080359060200190929190505050610c57565b005b3480156103d357600080fd5b506103dc610d12565b604051808273ffffffffffffffffffffffffffffffffffffffff1673ffffffffffffffffffffffffffffffffffffffff16815260200191505060405180910390f35b34801561042a57600080fd5b50610433610d3b565b6040518080602001828103825283818151815260200191508051906020019060200280838360005b8381101561047657808201518184015260208101905061045b565b505050509050019250505060405180910390f35b34801561049657600080fd5b506104c3600480360381019080803560001916906020019092919080359060200190929190505050610d97565b6040518082815260200191505060405180910390f35b3480156104e557600080fd5b506104ee610dff565b005b3480156104fc57600080fd5b5061056b600480360381019080803590602001908201803590602001908080601f01602080910402602001604051908101604052809392919081815260200183838082843782019150505050505091929192908035906020019092919080359060200190929190505050610f08565b60405180826000191660001916815260200191505060405180910390f35b34801561059557600080fd5b506105ca600480360381019080803573ffffffffffffffffffffffffffffffffffffffff16906020019092919050505061119c565b005b6105fb34826002600086600019166000191681526020019081526020016000206112f49092919063ffffffff16565b151561060657600080fd5b610629600260008460001916600019168152602001908152602001600020611329565b151561063457600080fd5b610661816002600085600019166000191681526020019081526020016000206113da90919063ffffffff16565b7ffdf9fde64a309b920567412fe6a933942ccfff6922806daebff52e68fe269c906002600084600019166000191681526020019081526020016000206000018260405180806020018381526020018281038252848181546001816001161561010002031660029004815260200191508054600181600116156101000203166002900480156107305780601f1061070557610100808354040283529160200191610730565b820191906000526020600020905b81548152906001019060200180831161071357829003601f168201915b5050935050505060405180910390a161076782600260008560001916600019168152602001908152602001600020600201546113fd565b5050565b60003073ffffffffffffffffffffffffffffffffffffffff1631905090565b60606000806002600085600019166000191681526020019081526020016000206000016002600086600019166000191681526020019081526020016000206001015460026000876000191660001916815260200190815260200160002060020154828054600181600116156101000203166002900480601f0160208091040260200160405190810160405280929190818152602001828054600181600116156101000203166002900480156108805780601f1061085557610100808354040283529160200191610880565b820191906000526020600020905b81548152906001019060200180831161086357829003601f168201915b505050505092509250925092509193909250565b600160009054906101000a900473ffffffffffffffffffffffffffffffffffffffff1673ffffffffffffffffffffffffffffffffffffffff163373ffffffffffffffffffffffffffffffffffffffff161415156108f057600080fd5b600160009054906101000a900473ffffffffffffffffffffffffffffffffffffffff1673ffffffffffffffffffffffffffffffffffffffff166108fc3073ffffffffffffffffffffffffffffffffffffffff16319081150290604051600060405180830381858888f1935050505015801561096f573d6000803e3d6000fd5b50565b600160009054906101000a900473ffffffffffffffffffffffffffffffffffffffff1673ffffffffffffffffffffffffffffffffffffffff163373ffffffffffffffffffffffffffffffffffffffff161415156109ce57600080fd5b806000806101000a81548173ffffffffffffffffffffffffffffffffffffffff021916908373ffffffffffffffffffffffffffffffffffffffff1602179055508073ffffffffffffffffffffffffffffffffffffffff167fbb0e7ec411133f2e650f59a5c752be1a0f548c2140421e80171b2f9b1ff833a960405160405180910390a250565b6000600160009054906101000a900473ffffffffffffffffffffffffffffffffffffffff16905090565b600160009054906101000a900473ffffffffffffffffffffffffffffffffffffffff1681565b6000809054906101000a900473ffffffffffffffffffffffffffffffffffffffff1681565b6000600160009054906101000a900473ffffffffffffffffffffffffffffffffffffffff1673ffffffffffffffffffffffffffffffffffffffff163373ffffffffffffffffffffffffffffffffffffffff16141515610b2757600080fd5b610b4a600260008460001916600019168152602001908152602001600020611329565b1515610b5557600080fd5b610b78600260008460001916600019168152602001908152602001600020611533565b600260008360001916600019168152602001908152602001600020600301549050600381815481101515610ba857fe5b90600052602060002001600090556003600160038054905003815481101515610bcd57fe5b9060005260206000200154600382815481101515610be757fe5b90600052602060002001816000191690555080600260006003600160038054905003815481101515610c1557fe5b906000526020600020015460001916600019168152602001908152602001600020600301819055506003805480919060019003610c52919061168f565b505050565b600160009054906101000a900473ffffffffffffffffffffffffffffffffffffffff1673ffffffffffffffffffffffffffffffffffffffff163373ffffffffffffffffffffffffffffffffffffffff16141515610cb357600080fd5b610cd6600260008460001916600019168152602001908152602001600020611329565b1515610ce157600080fd5b8060026000846000191660001916815260200190815260200160002060020181905550610d0e82826113fd565b5050565b60008060009054906101000a900473ffffffffffffffffffffffffffffffffffffffff16905090565b60606003805480602002602001604051908101604052809291908181526020018280548015610d8d57602002820191906000526020600020905b81546000191681526020019060010190808311610d75575b5050505050905090565b6000816002600085600019166000191681526020019081526020016000206002015410151515610dc657600080fd5b610df7826002600086600019166000191681526020019081526020016000206001015461157390919063ffffffff16565b905092915050565b600073ffffffffffffffffffffffffffffffffffffffff16600160009054906101000a900473ffffffffffffffffffffffffffffffffffffffff1673ffffffffffffffffffffffffffffffffffffffff16141515610ec5576040517f08c379a000000000000000000000000000000000000000000000000000000000815260040180806020018281038252601a8152602001807f436f6e747261637420616c726561647920686173206f776e657200000000000081525060200191505060405180910390fd5b33600160006101000a81548173ffffffffffffffffffffffffffffffffffffffff021916908373ffffffffffffffffffffffffffffffffffffffff160217905550565b600080600160009054906101000a900473ffffffffffffffffffffffffffffffffffffffff1673ffffffffffffffffffffffffffffffffffffffff163373ffffffffffffffffffffffffffffffffffffffff16141515610f6757600080fd5b846040518082805190602001908083835b602083101515610f9d5780518252602082019150602081019050602083039250610f78565b6001836020036101000a03801982511681845116808217855250505050505090500191505060405180910390209050610fef600260008360001916600019168152602001908152602001600020611329565b151515610ffb57600080fd5b600381908060018154018082558091505090600182039060005260206000200160009091929091909150906000191690555061104385858560016003805490500360006115ae565b600260008360001916600019168152602001908152602001600020600082015181600001908051906020019061107a9291906116bb565b5060208201518160010155604082015181600201556060820151816003015560808201518160040160006101000a81548160ff0219169083151502179055509050507fb3537ec7ff479a1e147dda5183197ab20ad12fb10af0b0cf0e7a6bccbc47eda9858260405180806020018360001916600019168152602001828103825284818151815260200191508051906020019080838360005b8381101561112d578082015181840152602081019050611112565b50505050905090810190601f16801561115a5780820380516001836020036101000a031916815260200191505b50935050505060405180910390a1826002600083600019166000191681526020019081526020016000206002015414151561119157fe5b809150509392505050565b600160009054906101000a900473ffffffffffffffffffffffffffffffffffffffff1673ffffffffffffffffffffffffffffffffffffffff163373ffffffffffffffffffffffffffffffffffffffff161415156111f857600080fd5b600073ffffffffffffffffffffffffffffffffffffffff168173ffffffffffffffffffffffffffffffffffffffff161415151561123457600080fd5b8073ffffffffffffffffffffffffffffffffffffffff16600160009054906101000a900473ffffffffffffffffffffffffffffffffffffffff1673ffffffffffffffffffffffffffffffffffffffff167f8be0079c531659141344cd1fd0a4f28419497f9722a3daafe3b4186f6b6457e060405160405180910390a380600160006101000a81548173ffffffffffffffffffffffffffffffffffffffff021916908373ffffffffffffffffffffffffffffffffffffffff16021790555050565b600061130982846115f790919063ffffffff16565b846001015411158015611320575081846002015410155b90509392505050565b60006060826000018054600181600116156101000203166002900480601f0160208091040260200160405190810160405280929190818152602001828054600181600116156101000203166002900480156113c55780601f1061139a576101008083540402835291602001916113c5565b820191906000526020600020905b8154815290600101906020018083116113a857829003601f168201915b50505050509050600081511415915050919050565b6113f181836002015461161290919063ffffffff16565b82600201819055505050565b60058111158015611437575060026000836000191660001916815260200190815260200160002060040160009054906101000a900460ff16155b1561149757600160026000846000191660001916815260200190815260200160002060040160006101000a81548160ff02191690831515021790555061149660026000846000191660001916815260200190815260200160002061162b565b5b6005811180156114cf575060026000836000191660001916815260200190815260200160002060040160009054906101000a900460ff165b1561152f57600060026000846000191660001916815260200190815260200160002060040160006101000a81548160ff02191690831515021790555061152e60026000846000191660001916815260200190815260200160002061164e565b5b5050565b602060405190810160405280600081525081600001908051906020019061155b92919061173b565b50600081600101819055506000816002018190555050565b600080600084141561158857600091506115a7565b828402905082848281151561159957fe5b041415156115a357fe5b8091505b5092915050565b6115b66117bb565b6115be6117bb565b60a06040519081016040528088815260200187815260200186815260200185815260200184151581525090508091505095945050505050565b600080828481151561160557fe5b0490508091505092915050565b600082821115151561162057fe5b818303905092915050565b611643600a826001015461167190919063ffffffff16565b816001018190555050565b611666600a826001015461161290919063ffffffff16565b816001018190555050565b600080828401905083811015151561168557fe5b8091505092915050565b8154818355818111156116b6578183600052602060002091820191016116b591906117ed565b5b505050565b828054600181600116156101000203166002900490600052602060002090601f016020900481019282601f106116fc57805160ff191683800117855561172a565b8280016001018555821561172a579182015b8281111561172957825182559160200191906001019061170e565b5b5090506117379190611812565b5090565b828054600181600116156101000203166002900490600052602060002090601f016020900481019282601f1061177c57805160ff19168380011785556117aa565b828001600101855582156117aa579182015b828111156117a957825182559160200191906001019061178e565b5b5090506117b79190611812565b5090565b60a060405190810160405280606081526020016000815260200160008152602001600081526020016000151581525090565b61180f91905b8082111561180b5760008160009055506001016117f3565b5090565b90565b61183491905b80821115611830576000816000905550600101611818565b5090565b905600a165627a7a72305820210cc578c42fa14aa38d64b6c250a427b9a35a71abac3f50d0bd591ef2bb8d320029",
  "source": "pragma solidity ^0.4.23;\nimport '../Upgradeability/OwnableUpgradeableImplementation.sol';\nimport './SafeMath.sol';\nimport './ProductLib.sol';\nimport './Icontracts/IMarketplace.sol';\n\n\ncontract Marketplace is IMarketplace, OwnableUpgradeableImplementation {\n    using SafeMath for uint;\n    using ProductLib for ProductLib.Product;\n    \n    // event LogNewProduct(string name, bytes32 ID);\n    // event LogPurchase(string productName, uint quantity);\n    \n\n    mapping (bytes32 => ProductLib.Product) stock;\n    bytes32[] allProductsID;\n\n    function buy(bytes32 ID, uint quantity) public payable {\n        require(stock[ID].canBeBought(msg.value, quantity));\n        require(stock[ID].productExist());\n        stock[ID].buyProduct(quantity);\n\n        emit LogPurchase(stock[ID].name, quantity);\n        \n        //increase the price if stock scarcity\n        updatePrice(ID, stock[ID].quantity);\n    }\n    \n    function update(bytes32 ID, uint newQuantity) public onlyOwner {\n        require(stock[ID].productExist());\n        \n        stock[ID].quantity = newQuantity;\n        \n        //increase or restore the price\n        updatePrice(ID, newQuantity);\n    }\n    \n    function updatePrice(bytes32 ID, uint newQuantity) internal {\n        if(newQuantity <= 5 && !stock[ID].wasIncreased){\n            stock[ID].wasIncreased = true;\n            stock[ID].increasePriceOnLowQuantity();\n        }\n        if(newQuantity > 5 && stock[ID].wasIncreased){\n            stock[ID].wasIncreased = false;\n            stock[ID].restorePrice();\n        }\n    }\n    \n    //creates a new product and returns its ID\n    function newProduct(string name, uint price, uint quantity) public onlyOwner returns(bytes32) {\n        bytes32 ID = keccak256(name);// the ID is the hash of product name\n        require(!stock[ID].productExist());\n        allProductsID.push(ID);//add the ID to the array\n\n        stock[ID] = ProductLib.regNewProduct(name, price, quantity, allProductsID.length-1, false);\n        \n        emit LogNewProduct(name, ID);\n        assert(stock[ID].quantity == quantity);\n        return ID;\n    }\n    \n    function removeProduct(bytes32 ID) public onlyOwner {\n        require(stock[ID].productExist());\n        stock[ID].removeProduct();\n        \n        //remove the productID from the array\n        uint index = stock[ID].IDindex;//take the index of the ID\n        delete allProductsID[index];//delete the ID with certain index\n        //to fill the gap, take the last value of the array\n        //and store it at the index of the deleted ID\n        allProductsID[index] = allProductsID[allProductsID.length-1];\n        stock[allProductsID[allProductsID.length-1]].IDindex = index;\n        allProductsID.length--; //remove the last value and index\n    }\n    \n    function getProduct(bytes32 ID) public view returns(string name, uint price, uint quantity) {\n        return (stock[ID].name, stock[ID].price, stock[ID].quantity);\n    }\n    \n    function getProducts() public view returns(bytes32[]) {\n        return allProductsID;\n    }\n    \n    function getPrice(bytes32 ID, uint quantity) public view returns (uint) {\n        require(stock[ID].quantity >= quantity);\n        return stock[ID].price.mul(quantity);\n    }\n    \n    function withdraw() public onlyOwner {\n        owner.transfer(this.balance);\n    }\n    \n    function getBalance() public view returns (uint){\n        return this.balance;\n    }\n}",
  "sourcePath": "/Users/desimiramitkova/Projects/marketplace/contracts/Marketplace/Marketplace.sol",
  "compiler": {
    "name": "solc",
    "version": "0.4.24+commit.e67f0147.Emscripten.clang"
  },
  "schemaVersion": "0.9.18",
  "updatedAt": "2018-12-18T13:29:47.771Z"
}