{
  "contractName": "Marketplace2",
  "abi": [
    {
      "constant": false,
      "inputs": [
        {
          "name": "_newImpl",
          "type": "address"
        }
      ],
      "name": "upgradeImplementation",
      "outputs": [],
      "payable": false,
      "stateMutability": "nonpayable",
      "type": "function"
    },
    {
      "constant": true,
      "inputs": [],
      "name": "getOwner",
      "outputs": [
        {
          "name": "",
          "type": "address"
        }
      ],
      "payable": false,
      "stateMutability": "view",
      "type": "function"
    },
    {
      "constant": true,
      "inputs": [],
      "name": "contractImplementation",
      "outputs": [
        {
          "name": "",
          "type": "address"
        }
      ],
      "payable": false,
      "stateMutability": "view",
      "type": "function"
    },
    {
      "constant": true,
      "inputs": [],
      "name": "getImplementation",
      "outputs": [
        {
          "name": "",
          "type": "address"
        }
      ],
      "payable": false,
      "stateMutability": "view",
      "type": "function"
    },
    {
      "constant": false,
      "inputs": [],
      "name": "init",
      "outputs": [],
      "payable": false,
      "stateMutability": "nonpayable",
      "type": "function"
    },
    {
      "constant": false,
      "inputs": [
        {
          "name": "newOwner",
          "type": "address"
        }
      ],
      "name": "transferOwnership",
      "outputs": [],
      "payable": false,
      "stateMutability": "nonpayable",
      "type": "function"
    },
    {
      "anonymous": false,
      "inputs": [
        {
          "indexed": false,
          "name": "name",
          "type": "string"
        },
        {
          "indexed": false,
          "name": "ID",
          "type": "bytes"
        }
      ],
      "name": "LogNewProduct",
      "type": "event"
    },
    {
      "anonymous": false,
      "inputs": [
        {
          "indexed": false,
          "name": "productName",
          "type": "string"
        },
        {
          "indexed": false,
          "name": "quantity",
          "type": "uint256"
        }
      ],
      "name": "LogPurchase",
      "type": "event"
    },
    {
      "anonymous": false,
      "inputs": [
        {
          "indexed": true,
          "name": "_newImpl",
          "type": "address"
        }
      ],
      "name": "UpgradedContract",
      "type": "event"
    },
    {
      "anonymous": false,
      "inputs": [
        {
          "indexed": true,
          "name": "previousOwner",
          "type": "address"
        },
        {
          "indexed": true,
          "name": "newOwner",
          "type": "address"
        }
      ],
      "name": "OwnershipTransferred",
      "type": "event"
    },
    {
      "constant": false,
      "inputs": [
        {
          "name": "ID",
          "type": "bytes"
        },
        {
          "name": "quantity",
          "type": "uint256"
        }
      ],
      "name": "buy",
      "outputs": [],
      "payable": true,
      "stateMutability": "payable",
      "type": "function"
    },
    {
      "constant": false,
      "inputs": [
        {
          "name": "ID",
          "type": "bytes"
        },
        {
          "name": "newQuantity",
          "type": "uint256"
        }
      ],
      "name": "update",
      "outputs": [],
      "payable": false,
      "stateMutability": "nonpayable",
      "type": "function"
    },
    {
      "constant": false,
      "inputs": [
        {
          "name": "name",
          "type": "string"
        },
        {
          "name": "price",
          "type": "uint256"
        },
        {
          "name": "quantity",
          "type": "uint256"
        }
      ],
      "name": "newProduct",
      "outputs": [
        {
          "name": "",
          "type": "bytes"
        }
      ],
      "payable": false,
      "stateMutability": "nonpayable",
      "type": "function"
    },
    {
      "constant": false,
      "inputs": [
        {
          "name": "ID",
          "type": "bytes"
        }
      ],
      "name": "removeProduct",
      "outputs": [],
      "payable": false,
      "stateMutability": "nonpayable",
      "type": "function"
    },
    {
      "constant": false,
      "inputs": [
        {
          "name": "ID",
          "type": "bytes"
        },
        {
          "name": "newPrice",
          "type": "uint256"
        }
      ],
      "name": "increasePrice",
      "outputs": [],
      "payable": false,
      "stateMutability": "nonpayable",
      "type": "function"
    },
    {
      "constant": true,
      "inputs": [
        {
          "name": "ID",
          "type": "bytes"
        }
      ],
      "name": "getProduct",
      "outputs": [
        {
          "name": "name",
          "type": "string"
        },
        {
          "name": "price",
          "type": "uint256"
        },
        {
          "name": "quantity",
          "type": "uint256"
        }
      ],
      "payable": false,
      "stateMutability": "view",
      "type": "function"
    },
    {
      "constant": true,
      "inputs": [],
      "name": "getProducts",
      "outputs": [
        {
          "name": "",
          "type": "bytes[]"
        }
      ],
      "payable": false,
      "stateMutability": "view",
      "type": "function"
    },
    {
      "constant": true,
      "inputs": [
        {
          "name": "ID",
          "type": "bytes"
        },
        {
          "name": "quantity",
          "type": "uint256"
        }
      ],
      "name": "getPrice",
      "outputs": [
        {
          "name": "",
          "type": "uint256"
        }
      ],
      "payable": false,
      "stateMutability": "view",
      "type": "function"
    },
    {
      "constant": false,
      "inputs": [],
      "name": "withdraw",
      "outputs": [],
      "payable": false,
      "stateMutability": "nonpayable",
      "type": "function"
    },
    {
      "constant": true,
      "inputs": [],
      "name": "getBalance",
      "outputs": [
        {
          "name": "",
          "type": "uint256"
        }
      ],
      "payable": false,
      "stateMutability": "view",
      "type": "function"
    }
  ],
  "bytecode": "0x608060405234801561001057600080fd5b50612857806100206000396000f3fe608060405260043610610110576000357c010000000000000000000000000000000000000000000000000000000090048063aaf10f42116100a7578063e1c7392a11610076578063e1c7392a14610300578063e25af66a14610317578063e6f2642514610356578063f2fde38b1461039357610110565b8063aaf10f4214610258578063c29b2f2014610283578063c3b45234146102ae578063d33c07b4146102d757610110565b806383f94db7116100e357806383f94db71461019c578063893d20e8146101c557806392c44137146101f05780639e72370b1461022d57610110565b806312065fe0146101155780631d758668146101405780633ccfd60b1461015c578063556affb214610173575b600080fd5b34801561012157600080fd5b5061012a6103bc565b6040516101379190612668565b60405180910390f35b61015a6004803603610155919081019061229e565b6103db565b005b34801561016857600080fd5b50610171610684565b005b34801561017f57600080fd5b5061019a6004803603610195919081019061225d565b610762565b005b3480156101a857600080fd5b506101c360048036036101be919081019061220b565b610a56565b005b3480156101d157600080fd5b506101da610b38565b6040516101e79190612544565b60405180910390f35b3480156101fc57600080fd5b506102176004803603610212919081019061229e565b610b62565b6040516102249190612668565b60405180910390f35b34801561023957600080fd5b50610242610cea565b60405161024f9190612544565b60405180910390f35b34801561026457600080fd5b5061026d610d0f565b60405161027a9190612544565b60405180910390f35b34801561028f57600080fd5b50610298610d38565b6040516102a5919061255f565b60405180910390f35b3480156102ba57600080fd5b506102d560048036036102d0919081019061229e565b610e21565b005b3480156102e357600080fd5b506102fe60048036036102f9919081019061229e565b610f7e565b005b34801561030c57600080fd5b506103156110d1565b005b34801561032357600080fd5b5061033e6004803603610339919081019061225d565b6111a7565b60405161034d939291906125da565b60405180910390f35b34801561036257600080fd5b5061037d600480360361037891908101906122f2565b611421565b60405161038a9190612581565b60405180910390f35b34801561039f57600080fd5b506103ba60048036036103b59190810190612234565b61174a565b005b60003073ffffffffffffffffffffffffffffffffffffffff1631905090565b8161044f6002826040518082805190602001908083835b60208310151561041757805182526020820191506020810190506020830392506103f2565b6001836020036101000a03801982511681845116808217855250505050505090500191505090815260200160405180910390206118a2565b151561045a57600080fd5b6104d934836002866040518082805190602001908083835b6020831015156104975780518252602082019150602081019050602083039250610472565b6001836020036101000a03801982511681845116808217855250505050505090500191505090815260200160405180910390206119539092919063ffffffff16565b15156104e457600080fd5b610561826002856040518082805190602001908083835b60208310151561052057805182526020820191506020810190506020830392506104fb565b6001836020036101000a038019825116818451168082178552505050505050905001915050908152602001604051809103902061198890919063ffffffff16565b7ffdf9fde64a309b920567412fe6a933942ccfff6922806daebff52e68fe269c906002846040518082805190602001908083835b6020831015156105ba5780518252602082019150602081019050602083039250610595565b6001836020036101000a0380198251168184511680821785525050505050509050019150509081526020016040518091039020600001836040516105ff929190612618565b60405180910390a161067f836002856040518082805190602001908083835b602083101515610643578051825260208201915060208101905060208303925061061e565b6001836020036101000a0380198251168184511680821785525050505050509050019150509081526020016040518091039020600201546119ab565b505050565b600160009054906101000a900473ffffffffffffffffffffffffffffffffffffffff1673ffffffffffffffffffffffffffffffffffffffff163373ffffffffffffffffffffffffffffffffffffffff161415156106e057600080fd5b600160009054906101000a900473ffffffffffffffffffffffffffffffffffffffff1673ffffffffffffffffffffffffffffffffffffffff166108fc3073ffffffffffffffffffffffffffffffffffffffff16319081150290604051600060405180830381858888f1935050505015801561075f573d6000803e3d6000fd5b50565b600160009054906101000a900473ffffffffffffffffffffffffffffffffffffffff1673ffffffffffffffffffffffffffffffffffffffff163373ffffffffffffffffffffffffffffffffffffffff161415156107be57600080fd5b806108326002826040518082805190602001908083835b6020831015156107fa57805182526020820191506020810190506020830392506107d5565b6001836020036101000a03801982511681845116808217855250505050505090500191505090815260200160405180910390206118a2565b151561083d57600080fd5b6108b06002836040518082805190602001908083835b6020831015156108785780518252602082019150602081019050602083039250610853565b6001836020036101000a0380198251168184511680821785525050505050509050019150509081526020016040518091039020611cc1565b60006002836040518082805190602001908083835b6020831015156108ea57805182526020820191506020810190506020830392506108c5565b6001836020036101000a038019825116818451168082178552505050505050905001915050908152602001604051809103902060030154905060038181548110151561093257fe5b9060005260206000200160006109489190611e25565b600360016003805490500381548110151561095f57fe5b9060005260206000200160038281548110151561097857fe5b9060005260206000200190805460018160011615610100020316600290046109a1929190611e6d565b5080600260036001600380549050038154811015156109bc57fe5b906000526020600020016040518082805460018160011615610100020316600290048015610a215780601f106109ff576101008083540402835291820191610a21565b820191906000526020600020905b815481529060010190602001808311610a0d575b50509150509081526020016040518091039020600301819055506003805480919060019003610a509190611ef4565b50505050565b600160009054906101000a900473ffffffffffffffffffffffffffffffffffffffff1673ffffffffffffffffffffffffffffffffffffffff163373ffffffffffffffffffffffffffffffffffffffff16141515610ab257600080fd5b806000806101000a81548173ffffffffffffffffffffffffffffffffffffffff021916908373ffffffffffffffffffffffffffffffffffffffff1602179055508073ffffffffffffffffffffffffffffffffffffffff167fbb0e7ec411133f2e650f59a5c752be1a0f548c2140421e80171b2f9b1ff833a960405160405180910390a250565b6000600160009054906101000a900473ffffffffffffffffffffffffffffffffffffffff16905090565b600082610bd86002826040518082805190602001908083835b602083101515610ba05780518252602082019150602081019050602083039250610b7b565b6001836020036101000a03801982511681845116808217855250505050505090500191505090815260200160405180910390206118a2565b1515610be357600080fd5b826002856040518082805190602001908083835b602083101515610c1c5780518252602082019150602081019050602083039250610bf7565b6001836020036101000a03801982511681845116808217855250505050505090500191505090815260200160405180910390206002015410151515610c6057600080fd5b610ce1836002866040518082805190602001908083835b602083101515610c9c5780518252602082019150602081019050602083039250610c77565b6001836020036101000a038019825116818451168082178552505050505050905001915050908152602001604051809103902060010154611d0190919063ffffffff16565b91505092915050565b6000809054906101000a900473ffffffffffffffffffffffffffffffffffffffff1681565b60008060009054906101000a900473ffffffffffffffffffffffffffffffffffffffff16905090565b60606003805480602002602001604051908101604052809291908181526020016000905b82821015610e18578382906000526020600020018054600181600116156101000203166002900480601f016020809104026020016040519081016040528092919081815260200182805460018160011615610100020316600290048015610e045780601f10610dd957610100808354040283529160200191610e04565b820191906000526020600020905b815481529060010190602001808311610de757829003601f168201915b505050505081526020019060010190610d5c565b50505050905090565b600160009054906101000a900473ffffffffffffffffffffffffffffffffffffffff1673ffffffffffffffffffffffffffffffffffffffff163373ffffffffffffffffffffffffffffffffffffffff16141515610e7d57600080fd5b81610ef16002826040518082805190602001908083835b602083101515610eb95780518252602082019150602081019050602083039250610e94565b6001836020036101000a03801982511681845116808217855250505050505090500191505090815260200160405180910390206118a2565b1515610efc57600080fd5b816002846040518082805190602001908083835b602083101515610f355780518252602082019150602081019050602083039250610f10565b6001836020036101000a038019825116818451168082178552505050505050905001915050908152602001604051809103902060020181905550610f7983836119ab565b505050565b600160009054906101000a900473ffffffffffffffffffffffffffffffffffffffff1673ffffffffffffffffffffffffffffffffffffffff163373ffffffffffffffffffffffffffffffffffffffff16141515610fda57600080fd5b8161104e6002826040518082805190602001908083835b6020831015156110165780518252602082019150602081019050602083039250610ff1565b6001836020036101000a03801982511681845116808217855250505050505090500191505090815260200160405180910390206118a2565b151561105957600080fd5b816002846040518082805190602001908083835b602083101515611092578051825260208201915060208101905060208303925061106d565b6001836020036101000a038019825116818451168082178552505050505050905001915050908152602001604051809103902060010181905550505050565b600073ffffffffffffffffffffffffffffffffffffffff16600160009054906101000a900473ffffffffffffffffffffffffffffffffffffffff1673ffffffffffffffffffffffffffffffffffffffff16141515611164576040517f08c379a000000000000000000000000000000000000000000000000000000000815260040161115b90612648565b60405180910390fd5b33600160006101000a81548173ffffffffffffffffffffffffffffffffffffffff021916908373ffffffffffffffffffffffffffffffffffffffff160217905550565b6060600080836112206002826040518082805190602001908083835b6020831015156111e857805182526020820191506020810190506020830392506111c3565b6001836020036101000a03801982511681845116808217855250505050505090500191505090815260200160405180910390206118a2565b151561122b57600080fd5b6002856040518082805190602001908083835b602083101515611263578051825260208201915060208101905060208303925061123e565b6001836020036101000a03801982511681845116808217855250505050505090500191505090815260200160405180910390206000016002866040518082805190602001908083835b6020831015156112d157805182526020820191506020810190506020830392506112ac565b6001836020036101000a0380198251168184511680821785525050505050509050019150509081526020016040518091039020600101546002876040518082805190602001908083835b602083101515611340578051825260208201915060208101905060208303925061131b565b6001836020036101000a038019825116818451168082178552505050505050905001915050908152602001604051809103902060020154828054600181600116156101000203166002900480601f01602080910402602001604051908101604052809291908181526020018280546001816001161561010002031660029004801561140c5780601f106113e15761010080835404028352916020019161140c565b820191906000526020600020905b8154815290600101906020018083116113ef57829003601f168201915b50505050509250935093509350509193909250565b6060600160009054906101000a900473ffffffffffffffffffffffffffffffffffffffff1673ffffffffffffffffffffffffffffffffffffffff163373ffffffffffffffffffffffffffffffffffffffff1614151561147f57600080fd5b6060846040516020018082805190602001908083835b6020831015156114ba5780518252602082019150602081019050602083039250611495565b6001836020036101000a03801982511681845116808217855250505050505090500191505060405160208183030381529060405290506115636002826040518082805190602001908083835b60208310151561152b5780518252602082019150602081019050602083039250611506565b6001836020036101000a03801982511681845116808217855250505050505090500191505090815260200160405180910390206118a2565b15151561156f57600080fd5b60038190806001815401808255809150509060018203906000526020600020016000909192909190915090805190602001906115ac929190611f20565b50506115c48585856001600380549050036000611d3c565b6002826040518082805190602001908083835b6020831015156115fc57805182526020820191506020810190506020830392506115d7565b6001836020036101000a0380198251168184511680821785525050505050509050019150509081526020016040518091039020600082015181600001908051906020019061164b929190611fa0565b5060208201518160010155604082015181600201556060820151816003015560808201518160040160006101000a81548160ff0219169083151502179055509050507fde5bda77b97fef662568e5b912b029173374400f9da28ae7c8624847268e948d85826040516116be9291906125a3565b60405180910390a1826002826040518082805190602001908083835b6020831015156116ff57805182526020820191506020810190506020830392506116da565b6001836020036101000a03801982511681845116808217855250505050505090500191505090815260200160405180910390206002015414151561173f57fe5b809150509392505050565b600160009054906101000a900473ffffffffffffffffffffffffffffffffffffffff1673ffffffffffffffffffffffffffffffffffffffff163373ffffffffffffffffffffffffffffffffffffffff161415156117a657600080fd5b600073ffffffffffffffffffffffffffffffffffffffff168173ffffffffffffffffffffffffffffffffffffffff16141515156117e257600080fd5b8073ffffffffffffffffffffffffffffffffffffffff16600160009054906101000a900473ffffffffffffffffffffffffffffffffffffffff1673ffffffffffffffffffffffffffffffffffffffff167f8be0079c531659141344cd1fd0a4f28419497f9722a3daafe3b4186f6b6457e060405160405180910390a380600160006101000a81548173ffffffffffffffffffffffffffffffffffffffff021916908373ffffffffffffffffffffffffffffffffffffffff16021790555050565b60006060826000018054600181600116156101000203166002900480601f01602080910402602001604051908101604052809291908181526020018280546001816001161561010002031660029004801561193e5780601f106119135761010080835404028352916020019161193e565b820191906000526020600020905b81548152906001019060200180831161192157829003601f168201915b50505050509050600081511415915050919050565b60006119688284611d8590919063ffffffff16565b84600101541115801561197f575081846002015410155b90509392505050565b61199f818360020154611da090919063ffffffff16565b82600201819055505050565b60058111158015611a3557506002826040518082805190602001908083835b6020831015156119ef57805182526020820191506020810190506020830392506119ca565b6001836020036101000a038019825116818451168082178552505050505050905001915050908152602001604051809103902060040160009054906101000a900460ff16155b15611b355760016002836040518082805190602001908083835b602083101515611a745780518252602082019150602081019050602083039250611a4f565b6001836020036101000a038019825116818451168082178552505050505050905001915050908152602001604051809103902060040160006101000a81548160ff021916908315150217905550611b346002836040518082805190602001908083835b602083101515611afc5780518252602082019150602081019050602083039250611ad7565b6001836020036101000a0380198251168184511680821785525050505050509050019150509081526020016040518091039020611db9565b5b600581118015611bbd57506002826040518082805190602001908083835b602083101515611b785780518252602082019150602081019050602083039250611b53565b6001836020036101000a038019825116818451168082178552505050505050905001915050908152602001604051809103902060040160009054906101000a900460ff165b15611cbd5760006002836040518082805190602001908083835b602083101515611bfc5780518252602082019150602081019050602083039250611bd7565b6001836020036101000a038019825116818451168082178552505050505050905001915050908152602001604051809103902060040160006101000a81548160ff021916908315150217905550611cbc6002836040518082805190602001908083835b602083101515611c845780518252602082019150602081019050602083039250611c5f565b6001836020036101000a0380198251168184511680821785525050505050509050019150509081526020016040518091039020611def565b5b5050565b6020604051908101604052806000815250816000019080519060200190611ce9929190612020565b50600081600101819055506000816002018190555050565b600080831415611d145760009050611d36565b60008284029050828482811515611d2757fe5b04141515611d3157fe5b809150505b92915050565b611d446120a0565b611d4c6120a0565b60a06040519081016040528088815260200187815260200186815260200185815260200184151581525090508091505095945050505050565b6000808284811515611d9357fe5b0490508091505092915050565b6000828211151515611dae57fe5b818303905092915050565b611de4600a611dd6600c8460010154611d0190919063ffffffff16565b611d8590919063ffffffff16565b816001018190555050565b611e1a600a611e0c600c8460010154611d8590919063ffffffff16565b611d0190919063ffffffff16565b816001018190555050565b50805460018160011615610100020316600290046000825580601f10611e4b5750611e6a565b601f016020900490600052602060002090810190611e6991906120d2565b5b50565b828054600181600116156101000203166002900490600052602060002090601f016020900481019282601f10611ea65780548555611ee3565b82800160010185558215611ee357600052602060002091601f016020900482015b82811115611ee2578254825591600101919060010190611ec7565b5b509050611ef091906120d2565b5090565b815481835581811115611f1b57818360005260206000209182019101611f1a91906120f7565b5b505050565b828054600181600116156101000203166002900490600052602060002090601f016020900481019282601f10611f6157805160ff1916838001178555611f8f565b82800160010185558215611f8f579182015b82811115611f8e578251825591602001919060010190611f73565b5b509050611f9c91906120d2565b5090565b828054600181600116156101000203166002900490600052602060002090601f016020900481019282601f10611fe157805160ff191683800117855561200f565b8280016001018555821561200f579182015b8281111561200e578251825591602001919060010190611ff3565b5b50905061201c91906120d2565b5090565b828054600181600116156101000203166002900490600052602060002090601f016020900481019282601f1061206157805160ff191683800117855561208f565b8280016001018555821561208f579182015b8281111561208e578251825591602001919060010190612073565b5b50905061209c91906120d2565b5090565b60a060405190810160405280606081526020016000815260200160008152602001600081526020016000151581525090565b6120f491905b808211156120f05760008160009055506001016120d8565b5090565b90565b61212091905b8082111561211c57600081816121139190611e25565b506001016120fd565b5090565b90565b600061212f823561279c565b905092915050565b600061214382356127ae565b905092915050565b600082601f830112151561215e57600080fd5b813561217161216c826126b0565b612683565b9150808252602083016020830185838301111561218d57600080fd5b6121988382846127ca565b50505092915050565b600082601f83011215156121b457600080fd5b81356121c76121c2826126dc565b612683565b915080825260208301602083018583830111156121e357600080fd5b6121ee8382846127ca565b50505092915050565b600061220382356127c0565b905092915050565b60006020828403121561221d57600080fd5b600061222b84828501612123565b91505092915050565b60006020828403121561224657600080fd5b600061225484828501612137565b91505092915050565b60006020828403121561226f57600080fd5b600082013567ffffffffffffffff81111561228957600080fd5b6122958482850161214b565b91505092915050565b600080604083850312156122b157600080fd5b600083013567ffffffffffffffff8111156122cb57600080fd5b6122d78582860161214b565b92505060206122e8858286016121f7565b9150509250929050565b60008060006060848603121561230757600080fd5b600084013567ffffffffffffffff81111561232157600080fd5b61232d868287016121a1565b935050602061233e868287016121f7565b925050604061234f868287016121f7565b9150509250925092565b61236281612760565b82525050565b600061237382612727565b8084526020840193508360208202850161238c85612708565b60005b848110156123c55783830388526123a783835161240c565b92506123b282612753565b915060208801975060018101905061238f565b508196508694505050505092915050565b60006123e18261273d565b8084526123f58160208601602086016127d9565b6123fe8161280c565b602085010191505092915050565b600061241782612732565b80845261242b8160208601602086016127d9565b6124348161280c565b602085010191505092915050565b600061244d82612748565b8084526124618160208601602086016127d9565b61246a8161280c565b602085010191505092915050565b60008154600181166000811461249557600181146124b5576124f6565b607f600283041680865260ff1983166020870152604086019350506124f6565b600282048086526020860195506124cb85612715565b60005b828110156124ed578154818901526001820191506020810190506124ce565b80880195505050505b505092915050565b6000601a82527f436f6e747261637420616c726561647920686173206f776e65720000000000006020830152604082019050919050565b61253e81612792565b82525050565b60006020820190506125596000830184612359565b92915050565b600060208201905081810360008301526125798184612368565b905092915050565b6000602082019050818103600083015261259b81846123d6565b905092915050565b600060408201905081810360008301526125bd8185612442565b905081810360208301526125d181846123d6565b90509392505050565b600060608201905081810360008301526125f48186612442565b90506126036020830185612535565b6126106040830184612535565b949350505050565b600060408201905081810360008301526126328185612478565b90506126416020830184612535565b9392505050565b60006020820190508181036000830152612661816124fe565b9050919050565b600060208201905061267d6000830184612535565b92915050565b6000604051905081810181811067ffffffffffffffff821117156126a657600080fd5b8060405250919050565b600067ffffffffffffffff8211156126c757600080fd5b601f19601f8301169050602081019050919050565b600067ffffffffffffffff8211156126f357600080fd5b601f19601f8301169050602081019050919050565b6000602082019050919050565b60008160005260206000209050919050565b600081519050919050565b600081519050919050565b600081519050919050565b600081519050919050565b6000602082019050919050565b600061276b82612772565b9050919050565b600073ffffffffffffffffffffffffffffffffffffffff82169050919050565b6000819050919050565b60006127a782612772565b9050919050565b60006127b982612772565b9050919050565b6000819050919050565b82818337600083830152505050565b60005b838110156127f75780820151818401526020810190506127dc565b83811115612806576000848401525b50505050565b6000601f19601f830116905091905056fea265627a7a72305820fdccc8ba415985a81cc057851aaa17deacd2aacf7a89696e01f1f2b99468ed736c6578706572696d656e74616cf50037",
  "source": "pragma solidity ^0.5.0;\npragma experimental ABIEncoderV2;\nimport '../Upgradeability/OwnableUpgradeableImplementation.sol';\nimport './SafeMath.sol';\nimport './ProductLib2.sol';\nimport './Icontracts/IMarketplace2.sol';\n\n\ncontract Marketplace2 is IMarketplace2, OwnableUpgradeableImplementation {\n    using SafeMath for uint;\n    using ProductLib2 for ProductLib2.Product;\n    \n    event LogNewProduct(string name, bytes ID);\n    event LogPurchase(string productName, uint quantity);\n    \n\n    mapping (bytes => ProductLib2.Product) stock;\n    bytes[] allProductsID;\n\n    modifier productExist(bytes memory ID) {\n        require(stock[ID].productExist());\n        _;\n    }\n\n    function buy(bytes memory ID, uint quantity) public payable productExist(ID) {\n        require(stock[ID].canBeBought(msg.value, quantity));\n        stock[ID].buyProduct(quantity);\n\n        emit LogPurchase(stock[ID].name, quantity);\n        \n        //increase the price if stock scarcity\n        updatePrice(ID, stock[ID].quantity);\n    }\n    \n    function update(bytes memory ID, uint newQuantity) public onlyOwner productExist(ID) {\n        \n        stock[ID].quantity = newQuantity;\n        \n        //increase or restore the price\n        updatePrice(ID, newQuantity);\n    }\n    \n    function updatePrice(bytes memory ID, uint newQuantity) internal {\n        if(newQuantity <= 5 && !stock[ID].wasIncreased){\n            stock[ID].wasIncreased = true;\n            stock[ID].increasePriceOnLowQuantity();\n        }\n        if(newQuantity > 5 && stock[ID].wasIncreased){\n            stock[ID].wasIncreased = false;\n            stock[ID].restorePrice();\n        }\n    }\n    \n    //creates a new product and returns its ID\n    function newProduct(string memory name, uint price, uint quantity) public onlyOwner returns(bytes memory) {\n        bytes memory ID = abi.encodePacked(name);// the ID is the hash of product name\n        require(!stock[ID].productExist());\n        allProductsID.push(ID);//add the ID to the array\n\n        stock[ID] = ProductLib2.regNewProduct(name, price, quantity, allProductsID.length-1, false);\n        \n        emit LogNewProduct(name, ID);\n        assert(stock[ID].quantity == quantity);\n        return ID;\n    }\n    \n    function removeProduct(bytes memory ID) public onlyOwner productExist(ID) {\n        stock[ID].removeProduct();\n        \n        //remove the productID from the array\n        uint index = stock[ID].IDindex;//take the index of the ID\n        delete allProductsID[index];//delete the ID with certain index\n        //to fill the gap, take the last value of the array\n        //and store it at the index of the deleted ID\n        allProductsID[index] = allProductsID[allProductsID.length-1];\n        stock[allProductsID[allProductsID.length-1]].IDindex = index;\n        allProductsID.length--; //remove the last value and index\n    }\n\n    function increasePrice(bytes memory ID, uint newPrice) public onlyOwner productExist(ID) {\n        stock[ID].price = newPrice;\n    }\n    \n    function getProduct(bytes memory ID) public view productExist(ID) returns(string memory name, uint price, uint quantity) {\n        return (stock[ID].name, stock[ID].price, stock[ID].quantity);\n    }\n    \n    function getProducts() public view returns(bytes[] memory) {\n        return allProductsID;\n    }\n    \n    function getPrice(bytes memory ID, uint quantity) public view productExist(ID) returns (uint) {\n        require(stock[ID].quantity >= quantity);\n        return stock[ID].price.mul(quantity);\n    }\n    \n    function withdraw() public onlyOwner {\n        owner.transfer(address(this).balance);\n    }\n    \n    function getBalance() public view returns (uint){\n        return address(this).balance;\n    }\n}",
  "sourcePath": "/Users/desimiramitkova/solidity/homework/MarketPlace/contracts/Marketplace/Marketplace2.sol",
  "compiler": {
    "name": "solc",
    "version": "0.5.2+commit.1df8f40c.Emscripten.clang"
  },
  "schemaVersion": "0.10.0",
  "updatedAt": "2018-12-31T15:24:32.602Z"
}