{
  "contractName": "Marketplace2",
  "abi": [
    {
      "constant": false,
      "inputs": [
        {
          "name": "_newImpl",
          "type": "address"
        }
      ],
      "name": "upgradeImplementation",
      "outputs": [],
      "payable": false,
      "stateMutability": "nonpayable",
      "type": "function"
    },
    {
      "constant": true,
      "inputs": [],
      "name": "getOwner",
      "outputs": [
        {
          "name": "",
          "type": "address"
        }
      ],
      "payable": false,
      "stateMutability": "view",
      "type": "function"
    },
    {
      "constant": true,
      "inputs": [],
      "name": "owner",
      "outputs": [
        {
          "name": "",
          "type": "address"
        }
      ],
      "payable": false,
      "stateMutability": "view",
      "type": "function"
    },
    {
      "constant": true,
      "inputs": [],
      "name": "contractImplementation",
      "outputs": [
        {
          "name": "",
          "type": "address"
        }
      ],
      "payable": false,
      "stateMutability": "view",
      "type": "function"
    },
    {
      "constant": true,
      "inputs": [],
      "name": "getImplementation",
      "outputs": [
        {
          "name": "",
          "type": "address"
        }
      ],
      "payable": false,
      "stateMutability": "view",
      "type": "function"
    },
    {
      "constant": false,
      "inputs": [],
      "name": "init",
      "outputs": [],
      "payable": false,
      "stateMutability": "nonpayable",
      "type": "function"
    },
    {
      "constant": false,
      "inputs": [
        {
          "name": "newOwner",
          "type": "address"
        }
      ],
      "name": "transferOwnership",
      "outputs": [],
      "payable": false,
      "stateMutability": "nonpayable",
      "type": "function"
    },
    {
      "anonymous": false,
      "inputs": [
        {
          "indexed": true,
          "name": "_newImpl",
          "type": "address"
        }
      ],
      "name": "UpgradedContract",
      "type": "event"
    },
    {
      "anonymous": false,
      "inputs": [
        {
          "indexed": true,
          "name": "previousOwner",
          "type": "address"
        },
        {
          "indexed": true,
          "name": "newOwner",
          "type": "address"
        }
      ],
      "name": "OwnershipTransferred",
      "type": "event"
    },
    {
      "anonymous": false,
      "inputs": [
        {
          "indexed": false,
          "name": "name",
          "type": "string"
        },
        {
          "indexed": false,
          "name": "ID",
          "type": "bytes32"
        },
        {
          "indexed": false,
          "name": "picHash",
          "type": "string"
        }
      ],
      "name": "LogNewProduct",
      "type": "event"
    },
    {
      "anonymous": false,
      "inputs": [
        {
          "indexed": false,
          "name": "productName",
          "type": "string"
        },
        {
          "indexed": false,
          "name": "quantity",
          "type": "uint256"
        }
      ],
      "name": "LogPurchase",
      "type": "event"
    },
    {
      "constant": false,
      "inputs": [
        {
          "name": "ID",
          "type": "bytes32"
        },
        {
          "name": "quantity",
          "type": "uint256"
        }
      ],
      "name": "buy",
      "outputs": [],
      "payable": true,
      "stateMutability": "payable",
      "type": "function"
    },
    {
      "constant": false,
      "inputs": [
        {
          "name": "ID",
          "type": "bytes32"
        },
        {
          "name": "newQuantity",
          "type": "uint256"
        }
      ],
      "name": "update",
      "outputs": [],
      "payable": false,
      "stateMutability": "nonpayable",
      "type": "function"
    },
    {
      "constant": false,
      "inputs": [
        {
          "name": "name",
          "type": "string"
        },
        {
          "name": "price",
          "type": "uint256"
        },
        {
          "name": "quantity",
          "type": "uint256"
        },
        {
          "name": "picHash",
          "type": "string"
        }
      ],
      "name": "newProduct",
      "outputs": [
        {
          "name": "",
          "type": "bytes32"
        }
      ],
      "payable": false,
      "stateMutability": "nonpayable",
      "type": "function"
    },
    {
      "constant": false,
      "inputs": [
        {
          "name": "ID",
          "type": "bytes32"
        }
      ],
      "name": "removeProduct",
      "outputs": [],
      "payable": false,
      "stateMutability": "nonpayable",
      "type": "function"
    },
    {
      "constant": false,
      "inputs": [
        {
          "name": "ID",
          "type": "bytes32"
        },
        {
          "name": "newPrice",
          "type": "uint256"
        }
      ],
      "name": "increasePrice",
      "outputs": [],
      "payable": false,
      "stateMutability": "nonpayable",
      "type": "function"
    },
    {
      "constant": true,
      "inputs": [
        {
          "name": "ID",
          "type": "bytes32"
        }
      ],
      "name": "getProduct",
      "outputs": [
        {
          "name": "name",
          "type": "string"
        },
        {
          "name": "price",
          "type": "uint256"
        },
        {
          "name": "quantity",
          "type": "uint256"
        }
      ],
      "payable": false,
      "stateMutability": "view",
      "type": "function"
    },
    {
      "constant": true,
      "inputs": [],
      "name": "getProducts",
      "outputs": [
        {
          "name": "",
          "type": "bytes32[]"
        }
      ],
      "payable": false,
      "stateMutability": "view",
      "type": "function"
    },
    {
      "constant": true,
      "inputs": [
        {
          "name": "ID",
          "type": "bytes32"
        },
        {
          "name": "quantity",
          "type": "uint256"
        }
      ],
      "name": "getPrice",
      "outputs": [
        {
          "name": "",
          "type": "uint256"
        }
      ],
      "payable": false,
      "stateMutability": "view",
      "type": "function"
    },
    {
      "constant": false,
      "inputs": [],
      "name": "withdraw",
      "outputs": [],
      "payable": false,
      "stateMutability": "nonpayable",
      "type": "function"
    },
    {
      "constant": true,
      "inputs": [],
      "name": "getBalance",
      "outputs": [
        {
          "name": "",
          "type": "uint256"
        }
      ],
      "payable": false,
      "stateMutability": "view",
      "type": "function"
    }
  ],
  "bytecode": "0x608060405234801561001057600080fd5b50611aaa806100206000396000f3006080604052600436106100f1576000357c0100000000000000000000000000000000000000000000000000000000900463ffffffff1680630ddeb632146100f657806312065fe0146101245780632cf3254e1461014f5780633a20e9df1461018a5780633ccfd60b1461024257806383f94db714610259578063893d20e81461029c5780638da5cb5b146102f35780639e72370b1461034a578063a26ea496146103a1578063a58bb84a146103d2578063aaf10f421461040d578063c29b2f2014610464578063c9280f06146104d0578063e1c7392a1461051f578063ee69ed8314610536578063f2fde38b14610615575b600080fd5b610122600480360381019080803560001916906020019092919080359060200190929190505050610658565b005b34801561013057600080fd5b506101396107f9565b6040518082815260200191505060405180910390f35b34801561015b57600080fd5b50610188600480360381019080803560001916906020019092919080359060200190929190505050610818565b005b34801561019657600080fd5b506101b960048036038101908080356000191690602001909291905050506108cb565b6040518080602001848152602001838152602001828103825285818151815260200191508051906020019080838360005b838110156102055780820151818401526020810190506101ea565b50505050905090810190601f1680156102325780820380516001836020036101000a031916815260200191505b5094505050505060405180910390f35b34801561024e57600080fd5b50610257610a05565b005b34801561026557600080fd5b5061029a600480360381019080803573ffffffffffffffffffffffffffffffffffffffff169060200190929190505050610ae3565b005b3480156102a857600080fd5b506102b1610bc5565b604051808273ffffffffffffffffffffffffffffffffffffffff1673ffffffffffffffffffffffffffffffffffffffff16815260200191505060405180910390f35b3480156102ff57600080fd5b50610308610bef565b604051808273ffffffffffffffffffffffffffffffffffffffff1673ffffffffffffffffffffffffffffffffffffffff16815260200191505060405180910390f35b34801561035657600080fd5b5061035f610c15565b604051808273ffffffffffffffffffffffffffffffffffffffff1673ffffffffffffffffffffffffffffffffffffffff16815260200191505060405180910390f35b3480156103ad57600080fd5b506103d06004803603810190808035600019169060200190929190505050610c3a565b005b3480156103de57600080fd5b5061040b600480360381019080803560001916906020019092919080359060200190929190505050610dca565b005b34801561041957600080fd5b50610422610e87565b604051808273ffffffffffffffffffffffffffffffffffffffff1673ffffffffffffffffffffffffffffffffffffffff16815260200191505060405180910390f35b34801561047057600080fd5b50610479610eb0565b6040518080602001828103825283818151815260200191508051906020019060200280838360005b838110156104bc5780820151818401526020810190506104a1565b505050509050019250505060405180910390f35b3480156104dc57600080fd5b50610509600480360381019080803560001916906020019092919080359060200190929190505050610f0c565b6040518082815260200191505060405180910390f35b34801561052b57600080fd5b50610534610fa4565b005b34801561054257600080fd5b506105f7600480360381019080803590602001908201803590602001908080601f01602080910402602001604051908101604052809392919081815260200183838082843782019150505050505091929192908035906020019092919080359060200190929190803590602001908201803590602001908080601f01602080910402602001604051908101604052809392919081815260200183838082843782019150505050505091929192905050506110ad565b60405180826000191660001916815260200191505060405180910390f35b34801561062157600080fd5b50610656600480360381019080803573ffffffffffffffffffffffffffffffffffffffff1690602001909291905050506113cd565b005b8161067c600260008360001916600019168152602001908152602001600020611525565b151561068757600080fd5b6106b634836002600087600019166000191681526020019081526020016000206115d69092919063ffffffff16565b15156106c157600080fd5b6106ee8260026000866000191660001916815260200190815260200160002061160b90919063ffffffff16565b7ffdf9fde64a309b920567412fe6a933942ccfff6922806daebff52e68fe269c906002600085600019166000191681526020019081526020016000206000018360405180806020018381526020018281038252848181546001816001161561010002031660029004815260200191508054600181600116156101000203166002900480156107bd5780601f10610792576101008083540402835291602001916107bd565b820191906000526020600020905b8154815290600101906020018083116107a057829003601f168201915b5050935050505060405180910390a16107f4836002600086600019166000191681526020019081526020016000206002015461162e565b505050565b60003073ffffffffffffffffffffffffffffffffffffffff1631905090565b600160009054906101000a900473ffffffffffffffffffffffffffffffffffffffff1673ffffffffffffffffffffffffffffffffffffffff163373ffffffffffffffffffffffffffffffffffffffff1614151561087457600080fd5b81610898600260008360001916600019168152602001908152602001600020611525565b15156108a357600080fd5b8160026000856000191660001916815260200190815260200160002060010181905550505050565b6060600080836108f4600260008360001916600019168152602001908152602001600020611525565b15156108ff57600080fd5b6002600086600019166000191681526020019081526020016000206000016002600087600019166000191681526020019081526020016000206001015460026000886000191660001916815260200190815260200160002060020154828054600181600116156101000203166002900480601f0160208091040260200160405190810160405280929190818152602001828054600181600116156101000203166002900480156109f05780601f106109c5576101008083540402835291602001916109f0565b820191906000526020600020905b8154815290600101906020018083116109d357829003601f168201915b50505050509250935093509350509193909250565b600160009054906101000a900473ffffffffffffffffffffffffffffffffffffffff1673ffffffffffffffffffffffffffffffffffffffff163373ffffffffffffffffffffffffffffffffffffffff16141515610a6157600080fd5b600160009054906101000a900473ffffffffffffffffffffffffffffffffffffffff1673ffffffffffffffffffffffffffffffffffffffff166108fc3073ffffffffffffffffffffffffffffffffffffffff16319081150290604051600060405180830381858888f19350505050158015610ae0573d6000803e3d6000fd5b50565b600160009054906101000a900473ffffffffffffffffffffffffffffffffffffffff1673ffffffffffffffffffffffffffffffffffffffff163373ffffffffffffffffffffffffffffffffffffffff16141515610b3f57600080fd5b806000806101000a81548173ffffffffffffffffffffffffffffffffffffffff021916908373ffffffffffffffffffffffffffffffffffffffff1602179055508073ffffffffffffffffffffffffffffffffffffffff167fbb0e7ec411133f2e650f59a5c752be1a0f548c2140421e80171b2f9b1ff833a960405160405180910390a250565b6000600160009054906101000a900473ffffffffffffffffffffffffffffffffffffffff16905090565b600160009054906101000a900473ffffffffffffffffffffffffffffffffffffffff1681565b6000809054906101000a900473ffffffffffffffffffffffffffffffffffffffff1681565b6000600160009054906101000a900473ffffffffffffffffffffffffffffffffffffffff1673ffffffffffffffffffffffffffffffffffffffff163373ffffffffffffffffffffffffffffffffffffffff16141515610c9857600080fd5b81610cbc600260008360001916600019168152602001908152602001600020611525565b1515610cc757600080fd5b610cea600260008560001916600019168152602001908152602001600020611764565b600260008460001916600019168152602001908152602001600020600301549150600382815481101515610d1a57fe5b90600052602060002001600090556003600160038054905003815481101515610d3f57fe5b9060005260206000200154600383815481101515610d5957fe5b90600052602060002001816000191690555081600260006003600160038054905003815481101515610d8757fe5b906000526020600020015460001916600019168152602001908152602001600020600301819055506003805480919060019003610dc491906118cf565b50505050565b600160009054906101000a900473ffffffffffffffffffffffffffffffffffffffff1673ffffffffffffffffffffffffffffffffffffffff163373ffffffffffffffffffffffffffffffffffffffff16141515610e2657600080fd5b81610e4a600260008360001916600019168152602001908152602001600020611525565b1515610e5557600080fd5b8160026000856000191660001916815260200190815260200160002060020181905550610e82838361162e565b505050565b60008060009054906101000a900473ffffffffffffffffffffffffffffffffffffffff16905090565b60606003805480602002602001604051908101604052809291908181526020018280548015610f0257602002820191906000526020600020905b81546000191681526020019060010190808311610eea575b5050505050905090565b600082610f32600260008360001916600019168152602001908152602001600020611525565b1515610f3d57600080fd5b826002600086600019166000191681526020019081526020016000206002015410151515610f6a57600080fd5b610f9b83600260008760001916600019168152602001908152602001600020600101546117a490919063ffffffff16565b91505092915050565b600073ffffffffffffffffffffffffffffffffffffffff16600160009054906101000a900473ffffffffffffffffffffffffffffffffffffffff1673ffffffffffffffffffffffffffffffffffffffff1614151561106a576040517f08c379a000000000000000000000000000000000000000000000000000000000815260040180806020018281038252601a8152602001807f436f6e747261637420616c726561647920686173206f776e657200000000000081525060200191505060405180910390fd5b33600160006101000a81548173ffffffffffffffffffffffffffffffffffffffff021916908373ffffffffffffffffffffffffffffffffffffffff160217905550565b600080600160009054906101000a900473ffffffffffffffffffffffffffffffffffffffff1673ffffffffffffffffffffffffffffffffffffffff163373ffffffffffffffffffffffffffffffffffffffff1614151561110c57600080fd5b856040518082805190602001908083835b602083101515611142578051825260208201915060208101905060208303925061111d565b6001836020036101000a03801982511681845116808217855250505050505090500191505060405180910390209050611194600260008360001916600019168152602001908152602001600020611525565b1515156111a057600080fd5b60038190806001815401808255809150509060018203906000526020600020016000909192909190915090600019169055506111e98686866001600380549050036000886117df565b60026000836000191660001916815260200190815260200160002060008201518160000190805190602001906112209291906118fb565b5060208201518160010155604082015181600201556060820151816003015560808201518160040160006101000a81548160ff02191690831515021790555060a082015181600501908051906020019061127b9291906118fb565b509050507fd287f844d29f4834212ef69d5ab8f1f1b2ba1e45403b0c3762e0bdab8664dff68682856040518080602001846000191660001916815260200180602001838103835286818151815260200191508051906020019080838360005b838110156112f55780820151818401526020810190506112da565b50505050905090810190601f1680156113225780820380516001836020036101000a031916815260200191505b50838103825284818151815260200191508051906020019080838360005b8381101561135b578082015181840152602081019050611340565b50505050905090810190601f1680156113885780820380516001836020036101000a031916815260200191505b509550505050505060405180910390a183600260008360001916600019168152602001908152602001600020600201541415156113c157fe5b80915050949350505050565b600160009054906101000a900473ffffffffffffffffffffffffffffffffffffffff1673ffffffffffffffffffffffffffffffffffffffff163373ffffffffffffffffffffffffffffffffffffffff1614151561142957600080fd5b600073ffffffffffffffffffffffffffffffffffffffff168173ffffffffffffffffffffffffffffffffffffffff161415151561146557600080fd5b8073ffffffffffffffffffffffffffffffffffffffff16600160009054906101000a900473ffffffffffffffffffffffffffffffffffffffff1673ffffffffffffffffffffffffffffffffffffffff167f8be0079c531659141344cd1fd0a4f28419497f9722a3daafe3b4186f6b6457e060405160405180910390a380600160006101000a81548173ffffffffffffffffffffffffffffffffffffffff021916908373ffffffffffffffffffffffffffffffffffffffff16021790555050565b60006060826000018054600181600116156101000203166002900480601f0160208091040260200160405190810160405280929190818152602001828054600181600116156101000203166002900480156115c15780601f10611596576101008083540402835291602001916115c1565b820191906000526020600020905b8154815290600101906020018083116115a457829003601f168201915b50505050509050600081511415915050919050565b60006115eb828461182f90919063ffffffff16565b846001015411158015611602575081846002015410155b90509392505050565b61162281836002015461184a90919063ffffffff16565b82600201819055505050565b60058111158015611668575060026000836000191660001916815260200190815260200160002060040160009054906101000a900460ff16155b156116c857600160026000846000191660001916815260200190815260200160002060040160006101000a81548160ff0219169083151502179055506116c7600260008460001916600019168152602001908152602001600020611863565b5b600581118015611700575060026000836000191660001916815260200190815260200160002060040160009054906101000a900460ff165b1561176057600060026000846000191660001916815260200190815260200160002060040160006101000a81548160ff02191690831515021790555061175f600260008460001916600019168152602001908152602001600020611899565b5b5050565b602060405190810160405280600081525081600001908051906020019061178c92919061197b565b50600081600101819055506000816002018190555050565b60008060008414156117b957600091506117d8565b82840290508284828115156117ca57fe5b041415156117d457fe5b8091505b5092915050565b6117e76119fb565b6117ef6119fb565b60c0604051908101604052808981526020018881526020018781526020018681526020018515158152602001848152509050809150509695505050505050565b600080828481151561183d57fe5b0490508091505092915050565b600082821115151561185857fe5b818303905092915050565b61188e600a611880600c84600101546117a490919063ffffffff16565b61182f90919063ffffffff16565b816001018190555050565b6118c4600a6118b6600c846001015461182f90919063ffffffff16565b6117a490919063ffffffff16565b816001018190555050565b8154818355818111156118f6578183600052602060002091820191016118f59190611a34565b5b505050565b828054600181600116156101000203166002900490600052602060002090601f016020900481019282601f1061193c57805160ff191683800117855561196a565b8280016001018555821561196a579182015b8281111561196957825182559160200191906001019061194e565b5b5090506119779190611a59565b5090565b828054600181600116156101000203166002900490600052602060002090601f016020900481019282601f106119bc57805160ff19168380011785556119ea565b828001600101855582156119ea579182015b828111156119e95782518255916020019190600101906119ce565b5b5090506119f79190611a59565b5090565b60c06040519081016040528060608152602001600081526020016000815260200160008152602001600015158152602001606081525090565b611a5691905b80821115611a52576000816000905550600101611a3a565b5090565b90565b611a7b91905b80821115611a77576000816000905550600101611a5f565b5090565b905600a165627a7a72305820cc1ea01c778a9c039e7b2fcaf2210a7e5171d09ce91be7dae2c8a1d16744d1080029",
  "source": "pragma solidity ^0.4.23;\nimport '../Upgradeability/OwnableUpgradeableImplementation.sol';\nimport './SafeMath.sol';\nimport './ProductLib2.sol';\nimport './Icontracts/IMarketplace2.sol';\n\n\ncontract Marketplace2 is IMarketplace2, OwnableUpgradeableImplementation {\n    using SafeMath for uint;\n    using ProductLib2 for ProductLib2.Product;\n    \n    // event LogNewProduct(string name, bytes32 ID, string picHash);\n    // event LogPurchase(string productName, uint quantity);\n    \n\n    mapping (bytes32 => ProductLib2.Product) stock;\n    bytes32[] allProductsID;\n\n    modifier productExist(bytes32 ID) {\n        require(stock[ID].productExist());\n        _;\n    }\n\n    function buy(bytes32 ID, uint quantity) public payable productExist(ID) {\n        require(stock[ID].canBeBought(msg.value, quantity));\n        stock[ID].buyProduct(quantity);\n\n        emit LogPurchase(stock[ID].name, quantity);\n        \n        //increase the price if stock scarcity\n        updatePrice(ID, stock[ID].quantity);\n    }\n    \n    function update(bytes32 ID, uint newQuantity) public onlyOwner productExist(ID) {\n        \n        stock[ID].quantity = newQuantity;\n        \n        //increase or restore the price\n        updatePrice(ID, newQuantity);\n    }\n    \n    function updatePrice(bytes32 ID, uint newQuantity) internal {\n        if(newQuantity <= 5 && !stock[ID].wasIncreased){\n            stock[ID].wasIncreased = true;\n            stock[ID].increasePriceOnLowQuantity();\n        }\n        if(newQuantity > 5 && stock[ID].wasIncreased){\n            stock[ID].wasIncreased = false;\n            stock[ID].restorePrice();\n        }\n    }\n    \n    //creates a new product and returns its ID\n    function newProduct(string name, uint price, uint quantity, string picHash) public onlyOwner returns(bytes32) {\n        bytes32 ID = keccak256(name);// the ID is the hash of product name\n        require(!stock[ID].productExist());\n        allProductsID.push(ID);//add the ID to the array\n\n        stock[ID] = ProductLib2.regNewProduct(name, price, quantity, allProductsID.length-1, false, picHash);\n        \n        emit LogNewProduct(name, ID, picHash);\n        assert(stock[ID].quantity == quantity);\n        return ID;\n    }\n    \n    function removeProduct(bytes32 ID) public onlyOwner productExist(ID) {\n        stock[ID].removeProduct();\n        \n        //remove the productID from the array\n        uint index = stock[ID].IDindex;//take the index of the ID\n        delete allProductsID[index];//delete the ID with certain index\n        //to fill the gap, take the last value of the array\n        //and store it at the index of the deleted ID\n        allProductsID[index] = allProductsID[allProductsID.length-1];\n        stock[allProductsID[allProductsID.length-1]].IDindex = index;\n        allProductsID.length--; //remove the last value and index\n    }\n\n    function increasePrice(bytes32 ID, uint newPrice) public onlyOwner productExist(ID) {\n        stock[ID].price = newPrice;\n    }\n    \n    function getProduct(bytes32 ID) public view productExist(ID) returns(string name, uint price, uint quantity) {\n        return (stock[ID].name, stock[ID].price, stock[ID].quantity);\n    }\n    \n    function getProducts() public view returns(bytes32[]) {\n        return allProductsID;\n    }\n    \n    function getPrice(bytes32 ID, uint quantity) public view productExist(ID) returns (uint) {\n        require(stock[ID].quantity >= quantity);\n        return stock[ID].price.mul(quantity);\n    }\n    \n    function withdraw() public onlyOwner {\n        owner.transfer(this.balance);\n    }\n    \n    function getBalance() public view returns (uint){\n        return this.balance;\n    }\n}",
  "sourcePath": "/Users/desimiramitkova/Projects/marketplace/contracts/Marketplace/Marketplace2.sol",
  "compiler": {
    "name": "solc",
    "version": "0.4.24+commit.e67f0147.Emscripten.clang"
  },
  "schemaVersion": "0.9.18",
  "updatedAt": "2018-12-18T13:29:47.762Z"
}