{
  "contractName": "Proxy",
  "abi": [
    {
      "constant": true,
      "inputs": [],
      "name": "contractImplementation",
      "outputs": [
        {
          "name": "",
          "type": "address"
        }
      ],
      "payable": false,
      "stateMutability": "view",
      "type": "function"
    },
    {
      "inputs": [
        {
          "name": "_contractImpl",
          "type": "address"
        }
      ],
      "payable": false,
      "stateMutability": "nonpayable",
      "type": "constructor"
    },
    {
      "payable": true,
      "stateMutability": "payable",
      "type": "fallback"
    },
    {
      "anonymous": false,
      "inputs": [
        {
          "indexed": true,
          "name": "_newImpl",
          "type": "address"
        }
      ],
      "name": "UpgradedContract",
      "type": "event"
    },
    {
      "constant": false,
      "inputs": [
        {
          "name": "_newImpl",
          "type": "address"
        }
      ],
      "name": "upgradeImplementation",
      "outputs": [],
      "payable": false,
      "stateMutability": "nonpayable",
      "type": "function"
    }
  ],
  "bytecode": "0x608060405234801561001057600080fd5b506040516020806102a98339810180604052602081101561003057600080fd5b8101908080519060200190929190505050806000806101000a81548173ffffffffffffffffffffffffffffffffffffffff021916908373ffffffffffffffffffffffffffffffffffffffff16021790555050610218806100916000396000f3fe608060405260043610610046576000357c01000000000000000000000000000000000000000000000000000000009004806383f94db7146100725780639e72370b146100c3575b6100706000809054906101000a900473ffffffffffffffffffffffffffffffffffffffff1661011a565b005b34801561007e57600080fd5b506100c16004803603602081101561009557600080fd5b81019080803573ffffffffffffffffffffffffffffffffffffffff169060200190929190505050610141565b005b3480156100cf57600080fd5b506100d86101c7565b604051808273ffffffffffffffffffffffffffffffffffffffff1673ffffffffffffffffffffffffffffffffffffffff16815260200191505060405180910390f35b60405136600082376000803683855af43d806000843e816000811461013d578184f35b8184fd5b806000806101000a81548173ffffffffffffffffffffffffffffffffffffffff021916908373ffffffffffffffffffffffffffffffffffffffff1602179055508073ffffffffffffffffffffffffffffffffffffffff167fbb0e7ec411133f2e650f59a5c752be1a0f548c2140421e80171b2f9b1ff833a960405160405180910390a250565b6000809054906101000a900473ffffffffffffffffffffffffffffffffffffffff168156fea165627a7a723058203ecaf2f6c772c9719459ce340ccdcbf4a64202893842422d630d674ae69e0cb60029",
  "source": "pragma solidity ^0.5.0;\n\nimport './Delegate.sol';\nimport './SharedStorage.sol';\n\ncontract Proxy is SharedStorage, Delegate {\n\n    event UpgradedContract(address indexed _newImpl);\n\n    constructor(address _contractImpl) public {\n        contractImplementation = _contractImpl;\n    }\n    \n    function() external payable {\n        delegatedFwd(contractImplementation);\n    }\n\n    function upgradeImplementation(address _newImpl) public {\n        contractImplementation = _newImpl;\n        emit UpgradedContract(_newImpl);\n    }\n\n}",
  "sourcePath": "/Users/desimiramitkova/Projects/marketplace/contracts/Upgradeability/Proxy.sol",
  "compiler": {
    "name": "solc",
    "version": "0.5.2+commit.1df8f40c.Emscripten.clang"
  },
  "schemaVersion": "0.9.19",
  "updatedAt": "2019-01-02T12:07:55.659Z"
}