{
  "contractName": "SharedStorage",
  "abi": [
    {
      "constant": true,
      "inputs": [],
      "name": "contractImplementation",
      "outputs": [
        {
          "name": "",
          "type": "address"
        }
      ],
      "payable": false,
      "stateMutability": "view",
      "type": "function"
    }
  ],
  "bytecode": "0x608060405234801561001057600080fd5b5060e38061001f6000396000f3fe6080604052348015600f57600080fd5b50600436106045576000357c0100000000000000000000000000000000000000000000000000000000900480639e72370b14604a575b600080fd5b60506092565b604051808273ffffffffffffffffffffffffffffffffffffffff1673ffffffffffffffffffffffffffffffffffffffff16815260200191505060405180910390f35b6000809054906101000a900473ffffffffffffffffffffffffffffffffffffffff168156fea165627a7a723058201a0d6967690f0f1721256aac5495cf26f53fd3e85d6620f36154630b9292d4010029",
  "source": "pragma solidity ^0.5.0;\n\ncontract SharedStorage {\n    address public contractImplementation;\n}",
  "sourcePath": "/Users/desimiramitkova/Projects/marketplace/contracts/Upgradeability/SharedStorage.sol",
  "compiler": {
    "name": "solc",
    "version": "0.5.2+commit.1df8f40c.Emscripten.clang"
  },
  "schemaVersion": "0.9.19",
  "updatedAt": "2019-01-02T12:07:55.659Z"
}