{
  "contractName": "Marketplace2",
  "abi": [
    {
      "constant": false,
      "inputs": [
        {
          "name": "_newImpl",
          "type": "address"
        }
      ],
      "name": "upgradeImplementation",
      "outputs": [],
      "payable": false,
      "stateMutability": "nonpayable",
      "type": "function"
    },
    {
      "constant": true,
      "inputs": [],
      "name": "getOwner",
      "outputs": [
        {
          "name": "",
          "type": "address"
        }
      ],
      "payable": false,
      "stateMutability": "view",
      "type": "function"
    },
    {
      "constant": true,
      "inputs": [],
      "name": "owner",
      "outputs": [
        {
          "name": "",
          "type": "address"
        }
      ],
      "payable": false,
      "stateMutability": "view",
      "type": "function"
    },
    {
      "constant": true,
      "inputs": [],
      "name": "contractImplementation",
      "outputs": [
        {
          "name": "",
          "type": "address"
        }
      ],
      "payable": false,
      "stateMutability": "view",
      "type": "function"
    },
    {
      "constant": true,
      "inputs": [],
      "name": "getImplementation",
      "outputs": [
        {
          "name": "",
          "type": "address"
        }
      ],
      "payable": false,
      "stateMutability": "view",
      "type": "function"
    },
    {
      "constant": false,
      "inputs": [],
      "name": "init",
      "outputs": [],
      "payable": false,
      "stateMutability": "nonpayable",
      "type": "function"
    },
    {
      "constant": false,
      "inputs": [
        {
          "name": "newOwner",
          "type": "address"
        }
      ],
      "name": "transferOwnership",
      "outputs": [],
      "payable": false,
      "stateMutability": "nonpayable",
      "type": "function"
    },
    {
      "anonymous": false,
      "inputs": [
        {
          "indexed": false,
          "name": "name",
          "type": "string"
        },
        {
          "indexed": false,
          "name": "ID",
          "type": "bytes32"
        }
      ],
      "name": "LogNewProduct",
      "type": "event"
    },
    {
      "anonymous": false,
      "inputs": [
        {
          "indexed": false,
          "name": "productName",
          "type": "string"
        },
        {
          "indexed": false,
          "name": "quantity",
          "type": "uint256"
        }
      ],
      "name": "LogPurchase",
      "type": "event"
    },
    {
      "anonymous": false,
      "inputs": [
        {
          "indexed": true,
          "name": "_newImpl",
          "type": "address"
        }
      ],
      "name": "UpgradedContract",
      "type": "event"
    },
    {
      "anonymous": false,
      "inputs": [
        {
          "indexed": true,
          "name": "previousOwner",
          "type": "address"
        },
        {
          "indexed": true,
          "name": "newOwner",
          "type": "address"
        }
      ],
      "name": "OwnershipTransferred",
      "type": "event"
    },
    {
      "constant": false,
      "inputs": [
        {
          "name": "ID",
          "type": "bytes32"
        },
        {
          "name": "quantity",
          "type": "uint256"
        }
      ],
      "name": "buy",
      "outputs": [],
      "payable": true,
      "stateMutability": "payable",
      "type": "function"
    },
    {
      "constant": false,
      "inputs": [
        {
          "name": "ID",
          "type": "bytes32"
        },
        {
          "name": "newQuantity",
          "type": "uint256"
        }
      ],
      "name": "update",
      "outputs": [],
      "payable": false,
      "stateMutability": "nonpayable",
      "type": "function"
    },
    {
      "constant": false,
      "inputs": [
        {
          "name": "name",
          "type": "string"
        },
        {
          "name": "price",
          "type": "uint256"
        },
        {
          "name": "quantity",
          "type": "uint256"
        }
      ],
      "name": "newProduct",
      "outputs": [
        {
          "name": "",
          "type": "bytes32"
        }
      ],
      "payable": false,
      "stateMutability": "nonpayable",
      "type": "function"
    },
    {
      "constant": false,
      "inputs": [
        {
          "name": "ID",
          "type": "bytes32"
        }
      ],
      "name": "removeProduct",
      "outputs": [],
      "payable": false,
      "stateMutability": "nonpayable",
      "type": "function"
    },
    {
      "constant": false,
      "inputs": [
        {
          "name": "ID",
          "type": "bytes32"
        },
        {
          "name": "newPrice",
          "type": "uint256"
        }
      ],
      "name": "increasePrice",
      "outputs": [],
      "payable": false,
      "stateMutability": "nonpayable",
      "type": "function"
    },
    {
      "constant": true,
      "inputs": [
        {
          "name": "ID",
          "type": "bytes32"
        }
      ],
      "name": "getProduct",
      "outputs": [
        {
          "name": "name",
          "type": "string"
        },
        {
          "name": "price",
          "type": "uint256"
        },
        {
          "name": "quantity",
          "type": "uint256"
        }
      ],
      "payable": false,
      "stateMutability": "view",
      "type": "function"
    },
    {
      "constant": true,
      "inputs": [],
      "name": "getProducts",
      "outputs": [
        {
          "name": "",
          "type": "bytes32[]"
        }
      ],
      "payable": false,
      "stateMutability": "view",
      "type": "function"
    },
    {
      "constant": true,
      "inputs": [
        {
          "name": "ID",
          "type": "bytes32"
        },
        {
          "name": "quantity",
          "type": "uint256"
        }
      ],
      "name": "getPrice",
      "outputs": [
        {
          "name": "",
          "type": "uint256"
        }
      ],
      "payable": false,
      "stateMutability": "view",
      "type": "function"
    },
    {
      "constant": false,
      "inputs": [],
      "name": "withdraw",
      "outputs": [],
      "payable": false,
      "stateMutability": "nonpayable",
      "type": "function"
    },
    {
      "constant": true,
      "inputs": [],
      "name": "getBalance",
      "outputs": [
        {
          "name": "",
          "type": "uint256"
        }
      ],
      "payable": false,
      "stateMutability": "view",
      "type": "function"
    }
  ],
  "bytecode": "0x608060405234801561001057600080fd5b506119ca806100206000396000f3006080604052600436106100f1576000357c0100000000000000000000000000000000000000000000000000000000900463ffffffff1680630ddeb632146100f657806312065fe0146101245780632cf3254e1461014f5780633a20e9df1461018a5780633ccfd60b1461024257806383f94db714610259578063893d20e81461029c5780638da5cb5b146102f35780639e72370b1461034a578063a26ea496146103a1578063a58bb84a146103d2578063aaf10f421461040d578063c29b2f2014610464578063c9280f06146104d0578063e1c7392a1461051f578063e6f2642514610536578063f2fde38b146105cf575b600080fd5b610122600480360381019080803560001916906020019092919080359060200190929190505050610612565b005b34801561013057600080fd5b506101396107b3565b6040518082815260200191505060405180910390f35b34801561015b57600080fd5b506101886004803603810190808035600019169060200190929190803590602001909291905050506107d2565b005b34801561019657600080fd5b506101b96004803603810190808035600019169060200190929190505050610885565b6040518080602001848152602001838152602001828103825285818151815260200191508051906020019080838360005b838110156102055780820151818401526020810190506101ea565b50505050905090810190601f1680156102325780820380516001836020036101000a031916815260200191505b5094505050505060405180910390f35b34801561024e57600080fd5b506102576109bf565b005b34801561026557600080fd5b5061029a600480360381019080803573ffffffffffffffffffffffffffffffffffffffff169060200190929190505050610a9d565b005b3480156102a857600080fd5b506102b1610b7f565b604051808273ffffffffffffffffffffffffffffffffffffffff1673ffffffffffffffffffffffffffffffffffffffff16815260200191505060405180910390f35b3480156102ff57600080fd5b50610308610ba9565b604051808273ffffffffffffffffffffffffffffffffffffffff1673ffffffffffffffffffffffffffffffffffffffff16815260200191505060405180910390f35b34801561035657600080fd5b5061035f610bcf565b604051808273ffffffffffffffffffffffffffffffffffffffff1673ffffffffffffffffffffffffffffffffffffffff16815260200191505060405180910390f35b3480156103ad57600080fd5b506103d06004803603810190808035600019169060200190929190505050610bf4565b005b3480156103de57600080fd5b5061040b600480360381019080803560001916906020019092919080359060200190929190505050610d84565b005b34801561041957600080fd5b50610422610e41565b604051808273ffffffffffffffffffffffffffffffffffffffff1673ffffffffffffffffffffffffffffffffffffffff16815260200191505060405180910390f35b34801561047057600080fd5b50610479610e6a565b6040518080602001828103825283818151815260200191508051906020019060200280838360005b838110156104bc5780820151818401526020810190506104a1565b505050509050019250505060405180910390f35b3480156104dc57600080fd5b50610509600480360381019080803560001916906020019092919080359060200190929190505050610ec6565b6040518082815260200191505060405180910390f35b34801561052b57600080fd5b50610534610f5e565b005b34801561054257600080fd5b506105b1600480360381019080803590602001908201803590602001908080601f01602080910402602001604051908101604052809392919081815260200183838082843782019150505050505091929192908035906020019092919080359060200190929190505050611067565b60405180826000191660001916815260200191505060405180910390f35b3480156105db57600080fd5b50610610600480360381019080803573ffffffffffffffffffffffffffffffffffffffff1690602001909291905050506112fb565b005b81610636600260008360001916600019168152602001908152602001600020611453565b151561064157600080fd5b61067034836002600087600019166000191681526020019081526020016000206115049092919063ffffffff16565b151561067b57600080fd5b6106a88260026000866000191660001916815260200190815260200160002061153990919063ffffffff16565b7ffdf9fde64a309b920567412fe6a933942ccfff6922806daebff52e68fe269c906002600085600019166000191681526020019081526020016000206000018360405180806020018381526020018281038252848181546001816001161561010002031660029004815260200191508054600181600116156101000203166002900480156107775780601f1061074c57610100808354040283529160200191610777565b820191906000526020600020905b81548152906001019060200180831161075a57829003601f168201915b5050935050505060405180910390a16107ae836002600086600019166000191681526020019081526020016000206002015461155c565b505050565b60003073ffffffffffffffffffffffffffffffffffffffff1631905090565b600160009054906101000a900473ffffffffffffffffffffffffffffffffffffffff1673ffffffffffffffffffffffffffffffffffffffff163373ffffffffffffffffffffffffffffffffffffffff1614151561082e57600080fd5b81610852600260008360001916600019168152602001908152602001600020611453565b151561085d57600080fd5b8160026000856000191660001916815260200190815260200160002060010181905550505050565b6060600080836108ae600260008360001916600019168152602001908152602001600020611453565b15156108b957600080fd5b6002600086600019166000191681526020019081526020016000206000016002600087600019166000191681526020019081526020016000206001015460026000886000191660001916815260200190815260200160002060020154828054600181600116156101000203166002900480601f0160208091040260200160405190810160405280929190818152602001828054600181600116156101000203166002900480156109aa5780601f1061097f576101008083540402835291602001916109aa565b820191906000526020600020905b81548152906001019060200180831161098d57829003601f168201915b50505050509250935093509350509193909250565b600160009054906101000a900473ffffffffffffffffffffffffffffffffffffffff1673ffffffffffffffffffffffffffffffffffffffff163373ffffffffffffffffffffffffffffffffffffffff16141515610a1b57600080fd5b600160009054906101000a900473ffffffffffffffffffffffffffffffffffffffff1673ffffffffffffffffffffffffffffffffffffffff166108fc3073ffffffffffffffffffffffffffffffffffffffff16319081150290604051600060405180830381858888f19350505050158015610a9a573d6000803e3d6000fd5b50565b600160009054906101000a900473ffffffffffffffffffffffffffffffffffffffff1673ffffffffffffffffffffffffffffffffffffffff163373ffffffffffffffffffffffffffffffffffffffff16141515610af957600080fd5b806000806101000a81548173ffffffffffffffffffffffffffffffffffffffff021916908373ffffffffffffffffffffffffffffffffffffffff1602179055508073ffffffffffffffffffffffffffffffffffffffff167fbb0e7ec411133f2e650f59a5c752be1a0f548c2140421e80171b2f9b1ff833a960405160405180910390a250565b6000600160009054906101000a900473ffffffffffffffffffffffffffffffffffffffff16905090565b600160009054906101000a900473ffffffffffffffffffffffffffffffffffffffff1681565b6000809054906101000a900473ffffffffffffffffffffffffffffffffffffffff1681565b6000600160009054906101000a900473ffffffffffffffffffffffffffffffffffffffff1673ffffffffffffffffffffffffffffffffffffffff163373ffffffffffffffffffffffffffffffffffffffff16141515610c5257600080fd5b81610c76600260008360001916600019168152602001908152602001600020611453565b1515610c8157600080fd5b610ca4600260008560001916600019168152602001908152602001600020611692565b600260008460001916600019168152602001908152602001600020600301549150600382815481101515610cd457fe5b90600052602060002001600090556003600160038054905003815481101515610cf957fe5b9060005260206000200154600383815481101515610d1357fe5b90600052602060002001816000191690555081600260006003600160038054905003815481101515610d4157fe5b906000526020600020015460001916600019168152602001908152602001600020600301819055506003805480919060019003610d7e91906117f6565b50505050565b600160009054906101000a900473ffffffffffffffffffffffffffffffffffffffff1673ffffffffffffffffffffffffffffffffffffffff163373ffffffffffffffffffffffffffffffffffffffff16141515610de057600080fd5b81610e04600260008360001916600019168152602001908152602001600020611453565b1515610e0f57600080fd5b8160026000856000191660001916815260200190815260200160002060020181905550610e3c838361155c565b505050565b60008060009054906101000a900473ffffffffffffffffffffffffffffffffffffffff16905090565b60606003805480602002602001604051908101604052809291908181526020018280548015610ebc57602002820191906000526020600020905b81546000191681526020019060010190808311610ea4575b5050505050905090565b600082610eec600260008360001916600019168152602001908152602001600020611453565b1515610ef757600080fd5b826002600086600019166000191681526020019081526020016000206002015410151515610f2457600080fd5b610f5583600260008760001916600019168152602001908152602001600020600101546116d290919063ffffffff16565b91505092915050565b600073ffffffffffffffffffffffffffffffffffffffff16600160009054906101000a900473ffffffffffffffffffffffffffffffffffffffff1673ffffffffffffffffffffffffffffffffffffffff16141515611024576040517f08c379a000000000000000000000000000000000000000000000000000000000815260040180806020018281038252601a8152602001807f436f6e747261637420616c726561647920686173206f776e657200000000000081525060200191505060405180910390fd5b33600160006101000a81548173ffffffffffffffffffffffffffffffffffffffff021916908373ffffffffffffffffffffffffffffffffffffffff160217905550565b600080600160009054906101000a900473ffffffffffffffffffffffffffffffffffffffff1673ffffffffffffffffffffffffffffffffffffffff163373ffffffffffffffffffffffffffffffffffffffff161415156110c657600080fd5b846040518082805190602001908083835b6020831015156110fc57805182526020820191506020810190506020830392506110d7565b6001836020036101000a0380198251168184511680821785525050505050509050019150506040518091039020905061114e600260008360001916600019168152602001908152602001600020611453565b15151561115a57600080fd5b60038190806001815401808255809150509060018203906000526020600020016000909192909190915090600019169055506111a2858585600160038054905003600061170d565b60026000836000191660001916815260200190815260200160002060008201518160000190805190602001906111d9929190611822565b5060208201518160010155604082015181600201556060820151816003015560808201518160040160006101000a81548160ff0219169083151502179055509050507fb3537ec7ff479a1e147dda5183197ab20ad12fb10af0b0cf0e7a6bccbc47eda9858260405180806020018360001916600019168152602001828103825284818151815260200191508051906020019080838360005b8381101561128c578082015181840152602081019050611271565b50505050905090810190601f1680156112b95780820380516001836020036101000a031916815260200191505b50935050505060405180910390a182600260008360001916600019168152602001908152602001600020600201541415156112f057fe5b809150509392505050565b600160009054906101000a900473ffffffffffffffffffffffffffffffffffffffff1673ffffffffffffffffffffffffffffffffffffffff163373ffffffffffffffffffffffffffffffffffffffff1614151561135757600080fd5b600073ffffffffffffffffffffffffffffffffffffffff168173ffffffffffffffffffffffffffffffffffffffff161415151561139357600080fd5b8073ffffffffffffffffffffffffffffffffffffffff16600160009054906101000a900473ffffffffffffffffffffffffffffffffffffffff1673ffffffffffffffffffffffffffffffffffffffff167f8be0079c531659141344cd1fd0a4f28419497f9722a3daafe3b4186f6b6457e060405160405180910390a380600160006101000a81548173ffffffffffffffffffffffffffffffffffffffff021916908373ffffffffffffffffffffffffffffffffffffffff16021790555050565b60006060826000018054600181600116156101000203166002900480601f0160208091040260200160405190810160405280929190818152602001828054600181600116156101000203166002900480156114ef5780601f106114c4576101008083540402835291602001916114ef565b820191906000526020600020905b8154815290600101906020018083116114d257829003601f168201915b50505050509050600081511415915050919050565b6000611519828461175690919063ffffffff16565b846001015411158015611530575081846002015410155b90509392505050565b61155081836002015461177190919063ffffffff16565b82600201819055505050565b60058111158015611596575060026000836000191660001916815260200190815260200160002060040160009054906101000a900460ff16155b156115f657600160026000846000191660001916815260200190815260200160002060040160006101000a81548160ff0219169083151502179055506115f560026000846000191660001916815260200190815260200160002061178a565b5b60058111801561162e575060026000836000191660001916815260200190815260200160002060040160009054906101000a900460ff165b1561168e57600060026000846000191660001916815260200190815260200160002060040160006101000a81548160ff02191690831515021790555061168d6002600084600019166000191681526020019081526020016000206117c0565b5b5050565b60206040519081016040528060008152508160000190805190602001906116ba9291906118a2565b50600081600101819055506000816002018190555050565b60008060008414156116e75760009150611706565b82840290508284828115156116f857fe5b0414151561170257fe5b8091505b5092915050565b611715611922565b61171d611922565b60a06040519081016040528088815260200187815260200186815260200185815260200184151581525090508091505095945050505050565b600080828481151561176457fe5b0490508091505092915050565b600082821115151561177f57fe5b818303905092915050565b6117b5600a6117a7600c84600101546116d290919063ffffffff16565b61175690919063ffffffff16565b816001018190555050565b6117eb600a6117dd600c846001015461175690919063ffffffff16565b6116d290919063ffffffff16565b816001018190555050565b81548183558181111561181d5781836000526020600020918201910161181c9190611954565b5b505050565b828054600181600116156101000203166002900490600052602060002090601f016020900481019282601f1061186357805160ff1916838001178555611891565b82800160010185558215611891579182015b82811115611890578251825591602001919060010190611875565b5b50905061189e9190611979565b5090565b828054600181600116156101000203166002900490600052602060002090601f016020900481019282601f106118e357805160ff1916838001178555611911565b82800160010185558215611911579182015b828111156119105782518255916020019190600101906118f5565b5b50905061191e9190611979565b5090565b60a060405190810160405280606081526020016000815260200160008152602001600081526020016000151581525090565b61197691905b8082111561197257600081600090555060010161195a565b5090565b90565b61199b91905b8082111561199757600081600090555060010161197f565b5090565b905600a165627a7a723058202b6d4c675f73366dd51d3ce4ef2e315102d78d031d728bc1ed7965d44f15599a0029",
  "source": "pragma solidity ^0.4.23;\nimport '../Upgradeability/OwnableUpgradeableImplementation.sol';\nimport './SafeMath.sol';\nimport './ProductLib2.sol';\nimport './Icontracts/IMarketplace2.sol';\n\n\ncontract Marketplace2 is IMarketplace2, OwnableUpgradeableImplementation {\n    using SafeMath for uint;\n    using ProductLib2 for ProductLib2.Product;\n    \n    event LogNewProduct(string name, bytes32 ID);\n    event LogPurchase(string productName, uint quantity);\n    \n\n    mapping (bytes32 => ProductLib2.Product) stock;\n    bytes32[] allProductsID;\n\n    modifier productExist(bytes32 ID) {\n        require(stock[ID].productExist());\n        _;\n    }\n\n    function buy(bytes32 ID, uint quantity) public payable productExist(ID) {\n        require(stock[ID].canBeBought(msg.value, quantity));\n        stock[ID].buyProduct(quantity);\n\n        emit LogPurchase(stock[ID].name, quantity);\n        \n        //increase the price if stock scarcity\n        updatePrice(ID, stock[ID].quantity);\n    }\n    \n    function update(bytes32 ID, uint newQuantity) public onlyOwner productExist(ID) {\n        \n        stock[ID].quantity = newQuantity;\n        \n        //increase or restore the price\n        updatePrice(ID, newQuantity);\n    }\n    \n    function updatePrice(bytes32 ID, uint newQuantity) internal {\n        if(newQuantity <= 5 && !stock[ID].wasIncreased){\n            stock[ID].wasIncreased = true;\n            stock[ID].increasePriceOnLowQuantity();\n        }\n        if(newQuantity > 5 && stock[ID].wasIncreased){\n            stock[ID].wasIncreased = false;\n            stock[ID].restorePrice();\n        }\n    }\n    \n    //creates a new product and returns its ID\n    function newProduct(string name, uint price, uint quantity) public onlyOwner returns(bytes32) {\n        bytes32 ID = keccak256(name);// the ID is the hash of product name\n        require(!stock[ID].productExist());\n        allProductsID.push(ID);//add the ID to the array\n\n        stock[ID] = ProductLib2.regNewProduct(name, price, quantity, allProductsID.length-1, false);\n        \n        emit LogNewProduct(name, ID);\n        assert(stock[ID].quantity == quantity);\n        return ID;\n    }\n    \n    function removeProduct(bytes32 ID) public onlyOwner productExist(ID) {\n        stock[ID].removeProduct();\n        \n        //remove the productID from the array\n        uint index = stock[ID].IDindex;//take the index of the ID\n        delete allProductsID[index];//delete the ID with certain index\n        //to fill the gap, take the last value of the array\n        //and store it at the index of the deleted ID\n        allProductsID[index] = allProductsID[allProductsID.length-1];\n        stock[allProductsID[allProductsID.length-1]].IDindex = index;\n        allProductsID.length--; //remove the last value and index\n    }\n\n    function increasePrice(bytes32 ID, uint newPrice) public onlyOwner productExist(ID) {\n        stock[ID].price = newPrice;\n    }\n    \n    function getProduct(bytes32 ID) public view productExist(ID) returns(string name, uint price, uint quantity) {\n        return (stock[ID].name, stock[ID].price, stock[ID].quantity);\n    }\n    \n    function getProducts() public view returns(bytes32[]) {\n        return allProductsID;\n    }\n    \n    function getPrice(bytes32 ID, uint quantity) public view productExist(ID) returns (uint) {\n        require(stock[ID].quantity >= quantity);\n        return stock[ID].price.mul(quantity);\n    }\n    \n    function withdraw() public onlyOwner {\n        owner.transfer(this.balance);\n    }\n    \n    function getBalance() public view returns (uint){\n        return this.balance;\n    }\n}",
  "sourcePath": "/Users/desimiramitkova/Projects/marketplace/contracts/Marketplace/Marketplace2.sol",
  "compiler": {
    "name": "solc",
    "version": "0.4.24+commit.e67f0147.Emscripten.clang"
  },
  "schemaVersion": "2.0.0",
  "updatedAt": "2018-06-25T12:51:02.644Z"
}