{
  "contractName": "Proxy",
  "abi": [
    {
      "constant": true,
      "inputs": [],
      "name": "contractImplementation",
      "outputs": [
        {
          "name": "",
          "type": "address"
        }
      ],
      "payable": false,
      "stateMutability": "view",
      "type": "function"
    },
    {
      "inputs": [
        {
          "name": "_contractImpl",
          "type": "address"
        }
      ],
      "payable": false,
      "stateMutability": "nonpayable",
      "type": "constructor"
    },
    {
      "payable": true,
      "stateMutability": "payable",
      "type": "fallback"
    },
    {
      "anonymous": false,
      "inputs": [
        {
          "indexed": true,
          "name": "_newImpl",
          "type": "address"
        }
      ],
      "name": "UpgradedContract",
      "type": "event"
    },
    {
      "constant": false,
      "inputs": [
        {
          "name": "_newImpl",
          "type": "address"
        }
      ],
      "name": "upgradeImplementation",
      "outputs": [],
      "payable": false,
      "stateMutability": "nonpayable",
      "type": "function"
    }
  ],
  "bytecode": "0x608060405234801561001057600080fd5b5060405160208061029383398101806040528101908080519060200190929190505050806000806101000a81548173ffffffffffffffffffffffffffffffffffffffff021916908373ffffffffffffffffffffffffffffffffffffffff16021790555050610210806100836000396000f30060806040526004361061004c576000357c0100000000000000000000000000000000000000000000000000000000900463ffffffff16806383f94db7146100785780639e72370b146100bb575b6100766000809054906101000a900473ffffffffffffffffffffffffffffffffffffffff16610112565b005b34801561008457600080fd5b506100b9600480360381019080803573ffffffffffffffffffffffffffffffffffffffff169060200190929190505050610139565b005b3480156100c757600080fd5b506100d06101bf565b604051808273ffffffffffffffffffffffffffffffffffffffff1673ffffffffffffffffffffffffffffffffffffffff16815260200191505060405180910390f35b60405136600082376000803683855af43d806000843e8160008114610135578184f35b8184fd5b806000806101000a81548173ffffffffffffffffffffffffffffffffffffffff021916908373ffffffffffffffffffffffffffffffffffffffff1602179055508073ffffffffffffffffffffffffffffffffffffffff167fbb0e7ec411133f2e650f59a5c752be1a0f548c2140421e80171b2f9b1ff833a960405160405180910390a250565b6000809054906101000a900473ffffffffffffffffffffffffffffffffffffffff16815600a165627a7a72305820f448b0c48395dfe0f242905c4c40c0e2b9376581622b5de778ba6517d4b038860029",
  "source": "pragma solidity ^0.4.23;\n\nimport './Delegate.sol';\nimport './SharedStorage.sol';\n\ncontract Proxy is SharedStorage, Delegate {\n\n    event UpgradedContract(address indexed _newImpl);\n\n    constructor(address _contractImpl) public {\n        contractImplementation = _contractImpl;\n    }\n    \n    function() public payable {\n        delegatedFwd(contractImplementation);\n    }\n\n    function upgradeImplementation(address _newImpl) public {\n        contractImplementation = _newImpl;\n        emit UpgradedContract(_newImpl);\n    }\n\n}",
  "sourcePath": "/Users/desimiramitkova/Projects/marketplace/contracts/Upgradeability/Proxy.sol",
  "compiler": {
    "name": "solc",
    "version": "0.4.24+commit.e67f0147.Emscripten.clang"
  },
  "schemaVersion": "2.0.0",
  "updatedAt": "2018-06-25T12:51:02.648Z"
}